:100000000C9477000C949F000C949F000C949F001C
:100010000C949F000C949F000C949F000C94A615C8
:100020000C949F000C949F000C949F000C94070567
:100030000C949F000C949F000C949F000C949F00C4
:100040000C94860F0C949F000C947D120C94AF12AC
:100050000C949F000C949F000C949F000C949F00A4
:100060000C94710D0C949F000D0316032503A70338
:10007000B10319042B0445044C04CF04DA04000036
:100080000008000201000003040700000000000057
:100090000000010204081020408001020408102022
:1000A00001020408102004040404040404040202ED
:1000B0000202020203030303030300000000230003
:1000C0002600290000000000250028002B00000069
:1000D0000000240027002A00026364696E6F7073B9
:1000E0007578585B00007802870CDF128D021124AE
:1000F0001FBECFEFD8E0DEBFCDBF13E0A0E0B1E080
:10010000ECEAFFE302C005900D92A23BB107D9F7DC
:1001100025E0A2EBB3E001C01D92A73EB207E1F7D4
:1001200010E0CCEED0E004C02297FE010E944418FB
:10013000C63ED107C9F70E944A160C94C91F0C94F9
:100140000000CF92DF92EF92FF920F931F93E82F60
:10015000F92F05C0015011092109310961F1908180
:1001600096239417B9F305C00150110921093109EB
:1001700011F1908196239413F7CFC12CD12CE12C4F
:10018000F12C0AC08FEFC81AD80AE80AF80A0C1531
:100190001D052E053F0579F080818623841791F394
:1001A0006C2D7D2D8E2D9F2D1F910F91FF90EF9027
:1001B000DF90CF90089560E070E080E090E01F91C4
:1001C0000F91FF90EF90DF90CF9008951092FE0373
:1001D0001092FD031092FC031092FB0381E090E06B
:1001E0009093FA038093F9030E94D00F6093F50374
:1001F0007093F6038093F7039093F8031092D9035A
:100200001092D80361E08DE00E94891061E087E0E0
:100210000E94891061E08CE00E94891060E08EE00D
:100220000E94891080EE93E00E941B0740E060E08E
:1002300080E00E94A3099B01AC0160E070E080EEC9
:1002400093E00E943E0980EE93E00E949F0788E6BB
:1002500094E00E94F90B81EC93E00E944E0F81EC38
:1002600093E00E947E0F8093B2031092410410929B
:10027000400426E040E051EE60E070E081E395E06C
:100280000C942112AF92BF92CF92DF92EF92FF9225
:100290000F931F93CF93DF93CDB7DEB7C858D10923
:1002A0000FB6F894DEBF0FBECDBF8E010F5F1F4F9C
:1002B0001F930F937E0121E2E20EF11CFF92EF9259
:1002C0006E0131E4C30ED11CDF92CF925E0121E6B4
:1002D000A20EB11CBF92AF922AE333E03F932F935B
:1002E0009F938F930E94DF190FB6F894DEBF0FBE65
:1002F000CDBF019699F0C5010E948919B82EA92E8B
:10030000C6010E948919D82EC92EC7010E948919D9
:10031000F82EE92EC8010E9489190EC08FEF9FEFB9
:10032000FF24FA94EE24EA94DD24DA94CC24CA94CF
:10033000BB24BA94AA24AA94CF57DF4FB882C158DD
:10034000D040CE57DF4FA882C258D040CD57DF4FA4
:10035000D882C358D040CC57DF4FC882C458D04051
:10036000CB57DF4FF882C558D040CA57DF4FE882DD
:10037000C658D040C957DF4F8883C758D040C857A8
:10038000DF4F9883C858D0402B2D3A2D4D2D5C2D32
:100390006F2D7E2DC857DF4F0FB6F894DEBF0FBE0E
:1003A000CDBFDF91CF911F910F91FF90EF90DF9024
:1003B000CF90BF90AF9008950F931F93CF93DF938B
:1003C000CDB7DEB7DA950FB6F894DEBF0FBECDBF5E
:1003D000FC0101900020E9F73197E81BF90B9F938E
:1003E0008F93FF93EF938FEB92E09F938F938E0108
:1003F0000F5F1F4F1F930F930E94BD19B80181E338
:1004000095E00E9460130FB6F894DEBF0FBECDBF1B
:10041000D3950FB6F894DEBF0FBECDBFDF91CF915D
:100420001F910F910895CF92DF92EF92FF928091EA
:10043000F9039091FA03892B09F055C08091FB03D1
:100440009091FC03892B91F41092FE031092FD030E
:1004500081E090E09093FA038093F90360E08DE0EF
:10046000FF90EF90DF90CF900C94C2100E94D00FBD
:100470006B017C018091F5039091F603A091F70345
:10048000B091F803B701A601481B590B6A0B7B0B0F
:100490008091FB039091FC03AA2797FDA095BA2FAA
:1004A00084179507A607B707F4F48091FD03909190
:1004B000FE03892B39F481E090E09093FE03809352
:1004C000FD0304C01092FE031092FD036091FD0332
:1004D0008DE00E94C210C092F503D092F603E09224
:1004E000F703F092F803FF90EF90DF90CF9008951C
:1004F00022E530E04BE061E070E080EE93E00E94A6
:1005000016098DED93E00E94C3058AED93E00E94E9
:10051000C30581EC93E00C949E0E80EE93E00C9466
:1005200007078F929F92AF92BF92CF92DF92EF9286
:10053000FF920F931F93CF93DF93CDB7DEB728972A
:100540000FB6F894DEBF0FBECDBF81E395E00E94E9
:100550003E11181619060CF046C280914004909185
:100560004104809724F0109241041092400481E3EA
:1005700095E00E94571180933F04873429F410922C
:100580004104109240040EC08A3061F4E0914004AE
:10059000F0914104E15EFB4F1082109241041092F1
:1005A000400412C02091400430914104A9014F5FE2
:1005B0005F4F5093410440934004F901E15EFB4FCB
:1005C00080838A3009F00FC280911F04873409F0BC
:1005D0000AC280912004853409F005C2809121046B
:1005E000843509F000C28FE194E00E944201298322
:1005F0003A834B835C836D837E838F830B811C8165
:100600008D809E80E981FA813197EB30F10508F009
:10061000E4C1EC5CFF4F0C9442181093FC03009370
:10062000FB031092FA031092F90333C18FE00E948A
:100630004310182F092F84E10E9443109F938F933A
:100640000F931F9381E693E0E2C00115110539F481
:100650008DED93E00E9463061092D90336C080911D
:10066000D903811109C064E070E08DED93E00E9430
:100670005D0681E08093D903B801882777FD8095D6
:10068000982F1F921F921F9224EB2F93A12CB12C15
:10069000650114E6E12EF12C00E010E02CE93FEFBB
:1006A0004FEF5FEF0E9402160F900F900F900F9088
:1006B000653B710514F064EB70E077FF02C060E009
:1006C00070E08DED93E00E94A2068114910439F44C
:1006D0008AED93E00E9463061092D803DAC08091FD
:1006E000D803811109C065E070E08AED93E00E94B3
:1006F0005D0681E08093D803B401882777FD80955B
:10070000982F1F921F921F9224EB2F93A12CB12C94
:1007100065011CE9E12EFF24FA940FEF1FEF24E698
:1007200030E040E050E00E9402160F900F900F90D2
:100730000F90653B710514F064EB70E077FF02C029
:1007400060E070E08AED93E00E94A206A2C09401EE
:10075000442737FD4095542FB80187E00E9462136B
:1007600098C060E08CE00E94C21082E090E00E949D
:10077000FF0F61E08CE00E94C2108AE090E00E94CE
:10078000FF0F60E08CE00E94C21020E432E44FE0F2
:1007900050E061E08EE00E94F8100E9457176093CD
:1007A000D0037093D1038093D2039093D3032DECA5
:1007B0003CEC48E652E40E94BE160E9426176536BD
:1007C0007105810591054CF46093D4037093D503B2
:1007D0008093D6039093D7030CC084E690E0A0E00A
:1007E000B0E08093D4039093D503A093D603B09345
:1007F000D7038091D7038F938091D6038F938091F5
:10080000D5038F938091D4038F938AE693E09F93CF
:100810008F938FEF93E09F938F930E94BD198FEF7B
:1008200093E00E94DC010FB6F894DEBF0FBECDBF8F
:10083000DAC04F81682D802F0E94A3099B01AC0173
:1008400060E070E080EE93E00E943E0980EE93E06D
:100850000E949F071EC085E10E9443109F938F93C3
:100860008EE693E09F938F938FEF93E09F938F9308
:100870000E94BD198FEF93E00E94DC010F900F9052
:100880000F900F900F900F90AEC0602F8DE00E94E0
:10089000C21080E993E08BC08091B203882391F16C
:1008A00085EBC82E83E0D82E97EBE92E93E0F92E46
:1008B00009EB13E02BEB33E04DEB53E06FEB73E010
:1008C00081EC93E00E94B80E81EC93E00E94200F2F
:1008D000BC01882777FD8095982F0E94591720E04A
:1008E00030E048E052E40E94BE1626E636EA46EBC7
:1008F00053E40E945A160E9426177093B403609323
:10090000B3031CC01092B6031092B5031092B80343
:100910001092B7031092BA031092B9031092BC035D
:100920001092BB031092BE031092BD031092C0033D
:100930001092BF031092B4031092B3038091BF03CF
:100940009091C0032091B4032F932091B3032F9370
:100950002091B6032F932091B5032F932091B803D4
:100960002F932091B7032F932091BA032F932091B7
:10097000B9032F939F938F932091BE032F932091C0
:10098000BD032F939F938F9381E793E09F938F9362
:100990008FEF93E09F938F930E94BD1940CF6EE835
:1009A00073E08FEF93E00E94AE198FEF93E00E9407
:1009B000DC0119C08AE091E09F938F938FEF93E061
:1009C0009F938F930E94BD198FEF93E00E94DC01EB
:1009D0000F900F900F900F9006C062E472E081E3D9
:1009E00095E00E94601328960FB6F894DEBF0FBE04
:1009F000CDBFDF91CF911F910F91FF90EF90DF90CE
:100A0000CF90BF90AF909F908F900C9413021F9245
:100A10000F920FB60F9211242F933F934F935F9332
:100A20006F937F938F939F93AF93BF93EF93FF93B6
:100A30008091430487FF05C01092850010928400C6
:100A40001AC020914304332727FD3095809142043A
:100A500090E0281739077CF480914304992787FD9B
:100A60009095FC01EE0FFF1FE80FF91FEC5BFB4FA9
:100A7000808186FD15C0809143048F5F809343047D
:100A800020914304332727FD30958091420490E064
:100A900028173907BCF4809143048C305CF112C0F4
:100AA00080914304992787FD9095FC01EE0FFF1F6D
:100AB000E80FF91FEC5BFB4F808160E08F730E94B1
:100AC000C210D9CF80918400909185000496803225
:100AD0009E4418F480E29EE405C0809184009091C9
:100AE0008500049690938900809388008FEF80930F
:100AF000430438C0209184003091850080914304E4
:100B0000992787FD9095FC01EE0FFF1FE80FF91F55
:100B1000EC5BFB4F81819281820F931F9093890040
:100B20008093880080914304992787FD9095FC016C
:100B3000EE0FFF1FE80FF91FEC5BFB4F808186FF74
:100B400011C080914304992787FD9095FC01EE0F19
:100B5000FF1FE80FF91FEC5BFB4F808161E08F7393
:100B60000E94C210FF91EF91BF91AF919F918F9121
:100B70007F916F915F914F913F912F910F900FBE99
:100B80000F901F901895209142042C30A0F431E072
:100B9000320F30934204FC012083822F90E0FC014D
:100BA000EE0FFF1FE80FF91FEC5BFB4F8CED95E09C
:100BB0009283818308952FEFFC0120830895DF92B3
:100BC000EF92FF920F931F93CF93DF93EC01D62EFA
:100BD0007A01890188818C3008F066C061E08D2D32
:100BE0000E9489108881A82FB0E0FD01EE0FFF1F41
:100BF000EA0FFB1FEC5BFB4F2D2D2F739081907C38
:100C0000922B908360E272E06E197F0977FF02C039
:100C10006D5F7F4F7595679575956795698340E61C
:100C200059E0401B510B57FF02C04D5F5F4F559578
:100C30004795559547954A836CE00E94F5179CE0CF
:100C4000899FB001112420E030E0A901460F571F11
:100C5000FA01EE0FFF1FE40FF51FEC5BFB4F9081D5
:100C600096FD16C02F5F3F4F2C30310571F7811173
:100C70000FC01092800082E0809381001092850066
:100C800010928400B19A80916F00826080936F000F
:100C9000888190E0FC01EE0FFF1FE80FF91FEC5B6D
:100CA000FB4F8081806480838881DF91CF911F9189
:100CB0000F91FF90EF90DF90089520E639E040E239
:100CC00052E00C94DF05FC01808190E0FC01EE0F06
:100CD000FF1FE80FF91FEC5BFB4F80818F7B808348
:100CE0000895FC0180818C3060F5918128E830E026
:100CF000291B310997FD3395220F331F220F331F14
:100D0000621773077CF0928128E532E0291B3109D4
:100D100097FD3395220F331F220F331F621773077E
:100D20000CF49B014FB7F89490E022503109FC017C
:100D3000EE0FFF1FE80FF91FEC5BFB4F328321839F
:100D40004FBF08954F925F926F927F92AF92BF9282
:100D5000CF92DF92EF92FF920F931F93CF93DF9387
:100D6000EC01603282E078070CF040C077FD06C0ED
:100D7000653B71052CF064EB70E002C060E070E050
:100D8000898128E830E0281B310987FD3395220F3F
:100D9000331F220F331F5901CC24B7FCC094DC2C25
:100DA000882777FD8095982F2A8148E552E0421BDD
:100DB000510927FD5395440F551F440F551F2A0114
:100DC000662457FC6094762C7F926F925F924F92CC
:100DD00014EBE12EF12C00E010E020E030E0A9015E
:100DE0000E9402160F900F900F900F90CE01DF918E
:100DF000CF911F910F91FF90EF90DF90CF90BF9018
:100E0000AF907F906F905F904F900C947106CF934E
:100E1000DF93EC0188859985009711F00E94FA18FC
:100E20008E8187FD05C060E0DF91CF910C94891021
:100E3000DF91CF910895CF93DF93EC018E8187FDF1
:100E400007C061E00E94891060E08E810E94C2109C
:100E500081E08983DF91CF910895EF92FF920F9304
:100E60001F93CF93DF93EC017B01888599850097D1
:100E700011F00E94FA189D858A85981303C083E0BB
:100E800090E002C084E090E08E9D80018F9D100D67
:100E90009E9D100D11241D830C83C8010E946218B1
:100EA00099878887009741F0A80160E070E00E9470
:100EB000A719FB82EA8204C01D821C821B821A824F
:100EC000DF91CF911F910F91FF90EF900895FC015A
:100ED00021E095858285981320E0CB0136E0969538
:100EE00087953A95E1F7482F43704587CB0154E049
:100EF000969587955A95E1F7382F33703287CB0155
:100F0000969587959695879583708387862F8370AE
:100F1000848781E06F3F710511F008F080E08083E5
:100F200080859185892B51F091E0431390E09217D1
:100F300029F062817381CF010C942D070895CF921F
:100F4000DF92EF92FF920F931F93CF93DF93CDB772
:100F5000DEB729970FB6F894DEBF0FBECDBF8C0168
:100F6000DC0118968D919C911997892B09F41DC16C
:100F70000E94DC0FF801C684D784E088F1886C19E0
:100F80007D098E099F09623371058105910580F302
:100F9000F894848195819A838983A085B1857D01A8
:100FA000EFEFEE1AFE0A8C918987D8018C91529648
:100FB0000D90BC91A02D882309F4BDC01D82AB32D9
:100FC000B10509F059C09BB1F8018489982B988725
:100FD0009BB1809589238F838F818E83898587FF3D
:100FE00002C088858E8358856F8149853E812D8119
:100FF00089819A81D7015BB9262F3BB900C046FD94
:10100000252F6BB900C05BB9362F2BB900C045FD49
:10101000352F6BB900C05BB9262F3BB900C044FD2A
:10102000252F6BB900C05BB9362F2BB900C043FD2B
:10103000352F6BB900C05BB9262F3BB900C042FD0C
:10104000252F6BB900C05BB9362F2BB900C041FD0D
:10105000352F6BB900C05BB9262F3BB900C040FDEE
:10106000252F6BB901975BB9362F2BB94D9147FDF1
:10107000352F6BB901F65BC0959709F08CC095B11F
:10108000F8018489982B988795B1809589238F835F
:101090008F818E83898587FF02C088858E835885DE
:1010A0006F8149853E812D8189819A81D70155B90A
:1010B000262F35B900C046FD252F65B900C055B9AA
:1010C000362F25B900C045FD352F65B900C055B98B
:1010D000262F35B900C044FD252F65B900C055B98C
:1010E000362F25B900C043FD352F65B900C055B96D
:1010F000262F35B900C042FD252F65B900C055B96E
:10110000362F25B900C041FD352F65B900C055B94E
:10111000262F35B900C040FD252F65B9019755B977
:10112000362F25B94D9147FD352F65B901F6498711
:101130003E832D832EC09C91F8018489982B98873B
:101140009C91809589238F838F818C8388E08B830A
:1011500058856F8149853B812C8189819A81F7016E
:101160005C9347FD252F2C93262F3A9531F0441F91
:101170006C9300C000C000C0F3CF6C93000038E057
:101180004191019769F7F801B38BA28B49873B83A3
:101190002C839A83898378940E94DC0FD8011E9651
:1011A0006D937D938D939C93519729960FB6F894E8
:1011B000DEBF0FBECDBFDF91CF911F910F91FF908A
:1011C000EF90DF90CF9008951F93CF93DF93EC01C2
:1011D000162F8981882331F08E8187FD03C060E05E
:1011E0000E9489101E838981882341F061E0812F4C
:1011F0000E94891060E0812F0E94C210812F90E030
:10120000FC01EA55FF4FE491F0E0EE0FFF1FEC53B5
:10121000FF4F259134913B8B2A8BFC01EE56FF4FFB
:1012200084918C8BDF91CF911F910895EF92FF9263
:101230000F931F93CF93DF931F92CDB7DEB77C013F
:101240008B01FC0111821782118610861686178683
:10125000108A118AB90149830E946707B801C70142
:101260000E942D074981642FC7010F90DF91CF9114
:101270001F910F91FF90EF900C94E408CF92DF92B2
:10128000EF92FF920F931F93CF93DF93FC01828124
:1012900093816817790708F04DC0CA01AA27BB27B8
:1012A000182FC32ED42EE52EFF24DC2DC22F07814C
:1012B000002361F0809FC0011124192FC09E60019E
:1012C0001124DD2D209FC0011124C92FF5848285B2
:1012D000A085B185F81208C0CB01880F991F860F31
:1012E000971F8A0F9B1F17C0CB01880F991F880F6C
:1012F000991F8A0F9B1F452F552766277727DC01EB
:10130000AF0DB11D002329F0409F90011124232F20
:1013100001C0242F2C932285DC01A20FB11D1C9348
:101320002385DC01A20FB11DDC932485FC01E20FB3
:10133000F11DC083DF91CF911F910F91FF90EF902E
:10134000DF90CF900895962F50E060E070E0592B29
:10135000682BCB01BA010895EF92FF920F931F9370
:10136000CF93DF9300D0CDB7DEB7062F142F682FB1
:1013700088E694E029833A830E94030C602F88E674
:1013800094E00E94BA0B2981022FE22E3A81F32EBB
:101390008E2D801B811740F4F70161917F0188E653
:1013A00094E00E94BA0BF4CF88E694E00E94840C8B
:1013B00091E0811190E0892F0F900F90DF91CF91F4
:1013C0001F910F91FF90EF900895CF93DF931F929D
:1013D000CDB7DEB749839E012F5F3F4F41E00E94AA
:1013E000AC090F90DF91CF9108953F924F925F9299
:1013F0006F927F928F929F92AF92BF92CF92DF9225
:10140000EF92FF920F931F93CF93DF9300D000D002
:1014100000D0CDB7DEB7682E562E742E3A832983BE
:101420000E94D00F6B017C01312C412C872D90E064
:101430009C838B834801A12CB12C3714B0F5662D09
:1014400088E694E00E94030C652D88E694E00E94F3
:10145000BA0B88E694E00E94840C662D88E694E03E
:101460000E94030C4B815C814319510941325105A3
:1014700014F040E250E0662D88E694E00E94810C72
:1014800088E694E00E94620B892B59F10115110541
:1014900079F10E94D00F6C197D098E099F0968159A
:1014A00079058A059B0520F11CC00115110589F1FC
:1014B0000E94D00F6C197D098E099F0920E030E051
:1014C000601771078207930720F1872D90E0242D84
:1014D000332727FD309528173907DCF444244A9434
:1014E00018C0872D90E2971508F480E2380EA5CF3A
:1014F000E981FA81E40DF11D47FCFA95FE83ED8345
:1015000088E694E00E946A0BED81FE81808343941B
:10151000B7CF842D26960FB6F894DEBF0FBECDBF91
:10152000DF91CF911F910F91FF90EF90DF90CF90BF
:10153000BF90AF909F908F907F906F905F904F90F3
:101540003F9008950F931F9389019A0141E00E94F3
:10155000F5091F910F910895CF92DF92EF92FF92BC
:101560000F931F93CF93DF931F92CDB7DEB7C42E97
:10157000D22E9701AE014F5F5F4F0E94A20A8823CF
:10158000F1F04C2D50E04D1951094F5F5F4F61E074
:1015900070E002C0660F771FDA94E2F761507109BC
:1015A000042E01C0660F0A94EAF72981262330E051
:1015B00002C0359527954A95E2F7F80120830F90F0
:1015C000DF91CF911F910F91FF90EF90DF90CF901F
:1015D0000895EF92FF920F931F93CF93DF931F9283
:1015E000CDB7DEB7182F062FF42EE22E209136034A
:1015F00030913703AE014F5F5F4F0E94A20A89818D
:1016000021E030E00F2C01C0220F0A94EAF7EE200F
:1016100019F0482F422B03C0422F4095482349839D
:10162000602F812F0E94E5090F90DF91CF911F91CC
:101630000F91FF90EF900895DF92EF92FF920F933A
:101640001F93CF93DF931F92CDB7DEB7F82EE62E10
:10165000D42E122F2091360330913703AE014F5F05
:101660005F4F0E94A20A882319F14D2D50E0411BC3
:1016700051094F5F5F4FE1E0F0E002C0EE0FFF1F46
:101680001A95E2F73197042E01C0EE0F0A94EAF79B
:1016900001C0000F4A95EAF74E2F409589814823F3
:1016A000E0234E2B49836E2D8F2D0E94E50901C04A
:1016B00080E00F90DF91CF911F910F91FF90EF90FD
:1016C000DF9008958091980490E020919904821B06
:1016D000910908952091990480919804281750F455
:1016E000E22FF0E0E656FB4F808190E02F5F2093E1
:1016F000990408958FEF9FEF0895E09199048091E8
:101700009804E81730F4F0E0E656FB4F808190E053
:1017100008958FEF9FEF08950895CF92DF92EF9293
:10172000FF920F931F93CF93DF937C01CB018A012C
:1017300020917404222389F0EB016B01C40ED51EA5
:10174000CC15DD0569F06991D701ED91FC9101900F
:10175000F081E02DC7010995F3CF642F0E94480D59
:10176000C801DF91CF911F910F91FF90EF90DF9013
:10177000CF900895CF93DF931F92CDB7DEB76983E3
:10178000209174042223D1F020917504203240F07E
:1017900021E030E0FC013383228380E090E015C03B
:1017A00080917604E82FF0E0E958FB4F998190830F
:1017B0008F5F809376048093750405C061E0CE014D
:1017C00001960E94480D81E090E00F90DF91CF914B
:1017D0000895FC011382128248EE53E060E070E04D
:1017E000448355836683778385E993E0918380837F
:1017F0000895109299041092980410927604109211
:1018000075040C948B0C81E08093740460939704AE
:10181000109276041092750408950F93062F21E01C
:101820004091750467E774E0809197040E94F10C81
:101830001092760410927504109274040F9108951A
:101840008F929F92AF92BF92CF92DF92EF92FF92D0
:101850000F931F93CF93DF93EC01F62ED42E480104
:101860005901EE2019F10E94030C1E2D143008F0CE
:1018700013E01150B8F0E881F98128E0129FB0011F
:101880001124A501940104C05695479537952795D5
:101890006A95D2F7CA01B9010190F081E02DCE011D
:1018A0000995E7CF60E0CE010E940D0C4D2D41322D
:1018B00008F040E22C2D6AE974E08F2D0E94A90CFB
:1018C0001092990480939804DF91CF911F910F910A
:1018D000FF90EF90DF90CF90BF90AF909F908F9050
:1018E0000895CF92EF920F931F93C22EE12C00E048
:1018F00010E098010E94200C1F910F91EF90CF9063
:10190000089521E00C94710C61E00C940D0C88E6B4
:1019100094E00C94E90B1092270581E08093250553
:101920001092240561E082E10E94C21061E083E12F
:101930000E94C210E9EBF0E080818E7F808380817D
:101940008D7F808380E28093B80085E48093BC0023
:101950000895413208F043C0909127059111FCCFC2
:1019600091E090932705209325052FEF2093BA044B
:101970001092FF04240F2093FE049093260590916B
:101980002605880F892B80932605809124058130B8
:1019900061F410922405809126058093BB0080910C
:1019A000BC0083FDF8CF85EC01C085EE8093BC00C0
:1019B000809127058130E1F38091FF04841710F4B2
:1019C0004091FF0420E035E0FB01D9018A2F821B02
:1019D000841718F48D918193F9CF842F089580E0B6
:1019E00008950F93413208F04AC090912705911154
:1019F000FCCF92E090932705009325059FEF9093ED
:101A0000BA041092FF044093FE04FB0160E075E00D
:101A1000DB019A2F961B941718F491919D93F9CF9F
:101A20001092260590912605880F892B8093260514
:101A300080912405813061F410922405809126055F
:101A40008093BB008091BC0083FDF8CF85EC01C082
:101A500085EE8093BC00222321F0809127058230FF
:101A6000E1F38091BA048F3F61F08091BA04803233
:101A700051F08091BA04803341F483E007C081E0E3
:101A800005C080E003C082E001C084E00F910895AA
:101A9000613298F420912705243089F46093DC04A6
:101AA000FC018EED94E0DC012A2F281B261718F488
:101AB00021912D93F9CF80E0089581E0089582E08F
:101AC000089585ED8093BC008091BC0084FDFCCF1F
:101AD00010922705089585EC8093BC00109227058D
:101AE00008951F920F920FB60F9211242F933F93D8
:101AF0004F935F936F937F938F939F93AF93BF9316
:101B0000EF93FF938091B900887F803609F49EC0DF
:101B100078F5883209F45DC090F4803109F456C03C
:101B200038F4882309F4F5C0883009F44FC0F5C0B3
:101B3000883109F44EC0803209F45FC0EEC08034B1
:101B400009F46AC058F4803309F457C0883309F0A7
:101B5000E4C08093BA040E946B0DDFC0803509F4A5
:101B60004FC0883509F45DC0883409F0D6C0D3C0B1
:101B7000883909F4C4C0A8F4883709F467C038F478
:101B8000883609F463C0803709F460C0C6C088385D
:101B900009F4B5C0803909F45FC0803809F0BDC0D0
:101BA0005BC0803B09F483C038F4803A09F466C016
:101BB000883A09F47CC0B1C0803C09F4A4C0883CD8
:101BC00009F4A1C0883B09F487C0A7C0809126050D
:101BD00010C09091FF048091FE04981770F5E09179
:101BE000FF0481E08E0F8093FF04F0E0E050FB4F94
:101BF00080818093BB0085EC83C08093BA048BC046
:101C0000E091FF0481E08E0F8093FF048091BB0080
:101C1000F0E0E050FB4F80839091FF048091FE0440
:101C20006BC0E091FF0481E08E0F8093FF048091F0
:101C3000BB00F0E0E050FB4F8083809125058111CF
:101C40006AC081E08093240584EA5EC083E08093CB
:101C500027051092BB04CFCF8091BB04803208F0DF
:101C60004EC0E091BB0481E08E0F8093BB04809155
:101C7000BB00F0E0E454FB4F8083BDCF0E946B0DAE
:101C80008091BB04803230F4E091BB04F0E0E45476
:101C9000FB4F10826091BB0470E0E0912005F09151
:101CA00021058CEB94E009951092BB0436C084E0CA
:101CB000809327051092DD041092DC04E091220548
:101CC000F091230509958091DC04811105C081E024
:101CD0008093DC041092DE04E091DD0481E08E0F3D
:101CE0008093DD04F0E0E252FB4F80818093BB00E3
:101CF0009091DD048091DC04981708F47CCF85E88E
:101D00008093BC000AC085EC8093BC00109227052C
:101D100004C01092BA040E94610DFF91EF91BF912F
:101D2000AF919F918F917F916F915F914F913F9173
:101D30002F910F900FBE0F901F90189528E6FC0171
:101D4000208308950F93062F22E044E06BE1FC010D
:101D500080810E941C0B0F9108950F93062F22E0A3
:101D600044E06CE1FC0180810E941C0B0F910895FE
:101D70004F925F926F927F928F929F92AF92BF929B
:101D8000CF92DF92EF92FF920F931F93CF93DF9347
:101D9000EC015B013A0149012801009136031091E1
:101DA00037039C012F5F3F4F4EE06BE388810E9419
:101DB000F509898190E0982F88272A81822BF501E7
:101DC000918380838B8190E0982F88272C81822BB0
:101DD000F301918380838D8190E0982F88272E8155
:101DE000822BF40191838083898590E0982F882746
:101DF0002A85822BF201918380838B8590E0982F36
:101E000088272C85822BF701918380838D8590E034
:101E1000982F88272E85822BF60191838083DF916E
:101E2000CF911F910F91FF90EF90DF90CF90BF90D7
:101E3000AF909F908F907F906F905F904F9008959C
:101E40000F931F93CF93DF93EC0100913603109112
:101E500037039C012F5F3F4F42E061E488810E947D
:101E6000F509898190E0982F88272A81822BDF91BC
:101E7000CF911F910F910895262F46E06BE6FC014C
:101E800080810C94E90A0F93062F23E042E06BE671
:101E9000FC0180810E941C0B0F910895CF93DF936A
:101EA000EC0161E00E94430F60E0CE010E94A20EAF
:101EB00060E0CE010E94AD0E60E0CE01DF91CF91D7
:101EC0000C943C0FEF92FF920F931F93CF93DF93ED
:101ED000EC01E0903603F09037038C010F5F1F4F49
:101EE00026E046E065E788810E94AC0A8981DF919F
:101EF000CF911F910F91FF90EF9008950E94620F74
:101F000091E0843309F090E0892F08951F920F9299
:101F10000FB60F9211242F933F938F939F93AF93FC
:101F2000BF938091290590912A05A0912B05B0912E
:101F30002C053091280526E0230F2D3720F402963A
:101F4000A11DB11D05C029E8230F0396A11DB11DD8
:101F5000209328058093290590932A05A0932B05AB
:101F6000B0932C0580912D0590912E05A0912F0501
:101F7000B09130050196A11DB11D80932D05909360
:101F80002E05A0932F05B0933005BF91AF919F917F
:101F90008F913F912F910F900FBE0F901F9018952A
:101FA0002FB7F8946091290570912A0580912B052F
:101FB00090912C052FBF08953FB7F89480912D057F
:101FC00090912E05A0912F05B091300526B5A89BC4
:101FD00005C02F3F19F00196A11DB11D3FBF662717
:101FE000782F892F9A2F620F711D811D911D43E05B
:101FF000660F771F881F991F4A95D1F70895833080
:10200000910528F0880F991F04970197F1F708951B
:10201000789484B5826084BD84B5816084BD85B5C3
:10202000826085BD85B5816085BDEEE6F0E080818A
:1020300081608083E1E8F0E01082808182608083AB
:10204000808181608083E0E8F0E08081816080832E
:10205000E1EBF0E0808184608083E0EBF0E0808160
:1020600081608083EAE7F0E0808184608083808102
:102070008260808380818E7F80838081806880837E
:102080001092C10008958E3008F08E508770209114
:10209000380390E4299F90011124822B80937C00C7
:1020A00080917A00806480937A0080917A0086FD26
:1020B000FCCF809178002091790090E0922B0895D8
:1020C000833081F028F4813099F08230A1F00895B6
:1020D0008730A9F08830B9F08430D1F48091800045
:1020E0008F7D03C0809180008F778093800008955A
:1020F00084B58F7702C084B58F7D84BD08958091AB
:10210000B0008F7703C08091B0008F7D8093B000C6
:102110000895CF93DF9390E0FC01EE56FF4F24919A
:10212000FC01EA55FF4F8491882349F190E0880F24
:10213000991FFC01E253FF4FA591B4918C539F4F1F
:10214000FC01C591D4919FB7611108C0F8948C919E
:10215000209582238C93888182230AC0623051F4B7
:10216000F8948C91322F309583238C938881822B25
:10217000888304C0F8948C91822B8C939FBFDF914D
:10218000CF9108950F931F93CF93DF931F92CDB7F5
:10219000DEB7282F30E0F901E258FF4F8491F901B2
:1021A000EE56FF4F1491F901EA55FF4F04910023B9
:1021B000C9F0882321F069830E9460106981E02FB3
:1021C000F0E0EE0FFF1FEC53FF4FA591B4919FB7C6
:1021D000F8948C91611103C01095812301C0812B6B
:1021E0008C939FBF0F90DF91CF911F910F91089516
:1021F0000F931F93762F90E0FC01EE56FF4F6491F2
:10220000FC01EA55FF4FE4917111762FF0E0EE0FDB
:10221000FF1FE654FF4F8591949189019A01B3E025
:10222000000F111F221F331FBA95D1F744E03695D6
:102230002795179507954A95D1F7472F0E94A1003A
:10224000611571058105910599F06F5F7F4F8F4F83
:102250009F4F24E0660F771F881F991F2A95D1F79B
:1022600033E096958795779567953A95D1F703C0B2
:1022700060E070E0CB011F910F910895FC01818D0A
:10228000228D90E0805C9F4F821B91098F7399276C
:102290000895FC01918D828D981731F0828DE80FA1
:1022A000F11D858D90E008958FEF9FEF0895FC015B
:1022B000918D828D981761F0828DDF01A80FB11D7D
:1022C0005D968C91928D9F5F9F73928F90E00895A1
:1022D0008FEF9FEF089585ED92E1892B49F080E023
:1022E00090E0892B29F00E94D51281110C940000F6
:1022F0000895FC01848DDF01A80FB11DA35ABF4FC3
:102300002C91848D90E001968F739927848FA689F4
:10231000B7892C93A089B1898C9180648C93938D1B
:10232000848D981306C00288F389E02D80818F7D0B
:1023300080830895CF93DF93EC01888D8823C9F0C3
:10234000EA89FB89808185FD05C0A889B9898C91BE
:1023500086FD0FC00FB607FCF5CF808185FFF2CF59
:10236000A889B9898C9185FFEDCFCE010E947911A2
:10237000E7CFDF91CF910895CF92DF92FF920F9335
:102380001F93CF93DF931F92CDB7DEB76C0181E02F
:10239000D60158968C9358975B969C915B975C9668
:1023A0008C915C97981307C05096ED91FC915197D2
:1023B000808185FD2EC0F601038D10E00F5F1F4F59
:1023C0000F731127F02EF601848DF81211C00FB68D
:1023D00007FCF9CFD6015096ED91FC915197808181
:1023E00085FFF1CFC60169830E9479116981EBCF26
:1023F000838DE80FF11DE35AFF4F6083D6015B9692
:102400000C935B975296ED91FC915397808180627B
:102410000CC0D6015696ED91FC915797608350966B
:10242000ED91FC91519780818064808381E090E000
:102430000F90DF91CF911F910F91FF90DF90CF9080
:102440000895BF92CF92DF92EF92FF92CF93DF93E6
:10245000EC016A017B01B22E60E874E88EE190E045
:10246000A70196010E940118215031094109510923
:102470005695479537952795E889F98982E08083B5
:10248000211580E1380798F0E889F989108260E425
:1024900072E48FE090E0A70196010E94011821509C
:1024A0003109410951095695479537952795EC858E
:1024B000FD853083EE85FF852083188EEC89FD89AC
:1024C000B082EA89FB89808180618083EA89FB8907
:1024D000808188608083EA89FB898081806880832D
:1024E000EA89FB8980818F7D8083DF91CF91FF9086
:1024F000EF90DF90CF90BF9008951F920F920FB68C
:102500000F9211242F938F939F93EF93FF93E0915A
:102510004105F09142058081E0914705F091480521
:1025200082FD12C0908180914A058F5F8F73209148
:102530004B05821751F0E0914A05F0E0EF5CFA4F4D
:10254000958F80934A0501C08081FF91EF919F9103
:102550008F912F910F900FBE0F901F9018951F9283
:102560000F920FB60F9211242F933F934F935F93C7
:102570006F937F938F939F93AF93BF93EF93FF934B
:1025800081E395E00E947911FF91EF91BF91AF91A6
:102590009F918F917F916F915F914F913F912F917B
:1025A0000F900FBE0F901F90189581E395E00E9449
:1025B0003E1121E0892B09F420E0822F089510922A
:1025C00034051092330588EE93E0A0E0B0E08093EC
:1025D000350590933605A0933705B093380585EA05
:1025E00093E0909332058093310585EC90E09093D1
:1025F0003E0580933D0584EC90E0909340058093E8
:102600003F0580EC90E0909342058093410581EC7A
:1026100090E0909344058093430582EC90E0909382
:1026200046058093450586EC90E09093480580939D
:10263000470510924A0510924B0510924C051092D6
:102640004D050895CF92DF92EF92FF920F931F9363
:10265000CF93DF937C016A01EB0100E010E00C15E1
:102660001D0571F06991D701ED91FC910190F08108
:10267000E02DC7010995892B19F00F5F1F4FEFCF90
:10268000C801DF91CF911F910F91FF90EF90DF90E4
:10269000CF9008956115710581F0DB010D90002048
:1026A000E9F7AD0141505109461B570BDC01ED9193
:1026B000FC910280F381E02D099480E090E0089580
:1026C0000C944A133F924F925F926F927F928F9237
:1026D0009F92AF92BF92CF92DF92EF92FF920F93B1
:1026E0001F93CF93DF9300D000D0CDB7DEB78B011F
:1026F00029013A0190913903981721F09F3F09F081
:10270000DAC104C0E8EDF0E0349081C08093390371
:10271000E8EDF0E0E491EF3F09F4CDC1E13031F1B3
:10272000E23009F44BC0E11171C014BC15BC94B582
:10273000926094BD95B5916095BD282F30E0F90168
:10274000EA55FF4FE491F0E0EE0FFF1FEC53FF4F0F
:10275000459154915093DE054093DD05F901EE5605
:10276000FF4F24912093DC05312C53C01092800040
:1027700010928100909181009860909381009091D7
:102780008100916090938100282F30E0F901EA5593
:10279000FF4FE491F0E0EE0FFF1FEC53FF4F459128
:1027A00054915093D7054093D605F901EE56FF4F4B
:1027B00024912093D505332433942BC01092B0007C
:1027C0001092B1009091B00092609093B0009091FF
:1027D000B10091609093B100282F30E0F901EA55E3
:1027E000FF4FE491F0E0EE0FFF1FEC53FF4F4591D8
:1027F00054915093D0054093CF05F901EE56FF4F09
:1028000024912093CE0552E0352E03C03E2E37FC96
:1028100052C161E00E9489104801A12CB12C832D86
:102820008D7F09F0C7C060E079E08DE390E0A501FD
:1028300094010E94231829833A834B835C836901A6
:102840007A0181E0C81AD108E108F1089FEFC916A2
:10285000D104E104F10409F008F49AC060E271EADD
:1028600087E090E0A50194010E94231869017A0194
:10287000E1E0CE1AD108E108F108F2E03F1219C0F8
:102880008FEFC816D104E104F10409F008F48AC0FE
:1028900068E478EE81E090E0A50194010E9423189D
:1028A00069017A0191E0C91AD108E108F10883E0D1
:1028B00001C082E0EFEFCE16D104E104F10409F08B
:1028C00008F467C064E274EF80E090E0A501940131
:1028D0000E94231869017A01F1E0CF1AD108E108BA
:1028E000F1083320E1F082E038121BC09FEFC916D7
:1028F000D104E104F10409F008F4DBC062E17AE7F5
:1029000080E090E0A50194010E94231869017A01FA
:10291000E1E0CE1AD108E108F10885E003C083E0C8
:1029200001C084E0FFEFCF16D104E104F10489F186
:1029300080F169E07DE380E090E0A50194010E94D0
:10294000231869017A0181E0C81AD108E108F10869
:10295000311002C084E001C086E09FEFC916D104A7
:10296000E104F104B1F0A8F0C980DA80EB80FC80CA
:102970009AE0F594E794D794C7949A95D1F7E1E05B
:10298000CE1AD108E108F108332031F087E00BC0FE
:1029900081E0332011F007C085E095B5987F982B32
:1029A00095BD38C082E09091B100987F982B9093AC
:1029B000B10030C060E079E08DE390E0A5019401C2
:1029C0000E94231869017A01F1E0CF1AD108E108C9
:1029D000F108C114D10481E0E806F10488F064E252
:1029E00074EF80E090E0A50194010E942318690132
:1029F0007A0191E0C91AD108E108F10893E001C019
:102A000091E0E1E03E1206C080918100887F892B31
:102A100080938100411451046104710471F0D80164
:102A2000AA0FBB1FA30192010E94481828EE33E0B1
:102A300040E050E00E94011803C02FEF3FEFA901D2
:102A4000F1E03F16A1F082E0381619F1311033C0E1
:102A5000C7BC2093DF053093E0054093E105509318
:102A6000E20580916E00826080936E0024C0D09257
:102A70008900C09288002093D8053093D9054093EF
:102A8000DA055093DB0580916F00826080936F00C0
:102A900012C0C092B3002093D1053093D205409369
:102AA000D3055093D40580917000826080937000AC
:102AB00002C084E078CF0F900F900F900F90DF91BD
:102AC000CF911F910F91FF90EF90DF90CF90BF902B
:102AD000AF909F908F907F906F905F904F903F90BE
:102AE0000895813039F018F0823051F00895109235
:102AF0006E00089580916F008D7F80936F00089520
:102B0000809170008D7F8093700081E08093B00091
:102B10008091B100887F84608093B1001092B300EF
:102B20000895CF93C82F809139038C1307C0E8ED27
:102B3000F0E084919FEF9093390301C08FEF0E94E2
:102B4000711560E08C2FCF910C94C2101F920F92E0
:102B50000FB60F9211242F933F934F935F936F9370
:102B60007F938F939F93AF93BF93EF93FF93809146
:102B7000D1059091D205A091D305B091D405892BB0
:102B80008A2B8B2B51F19091CE05E091CF05F091DE
:102B9000D0058081892780838091D1059091D205CD
:102BA000A091D305B091D405181619061A061B0674
:102BB000C4F48091D1059091D205A091D305B09134
:102BC000D4050197A109B1098093D1059093D2054D
:102BD000A093D305B093D40504C0809139030E941B
:102BE0009115FF91EF91BF91AF919F918F917F913F
:102BF0006F915F914F913F912F910F900FBE0F906A
:102C00001F9018954F925F926F927F92AF92BF92F2
:102C1000CF92DF92EF92FF920F931F93CF93DF93A8
:102C2000CDB7DEB729013A01621B730B840B950BFC
:102C300029893A894B895C892A193B094C095D0924
:102C4000298B3A8B4B8B5C8B9B01AC0169897A8910
:102C50008B899C890E94E517E418F5080609170975
:102C6000A80197010E9423182A0D3B1D4C1D5D1DD4
:102C7000CA01B901DF91CF911F910F91FF90EF90A1
:102C8000DF90CF90BF90AF907F906F905F904F900C
:102C9000089508950E9408100E9449160E94E600B7
:102CA000CBE6D1E10E9491022097E1F30E946B11E3
:102CB000F9CF5058BB27AA270ED04DC13ED130F0D6
:102CC00043D120F031F49F3F11F41EF433C10EF4D0
:102CD000E095E7FB29C1E92F4FD180F3BA176207CE
:102CE00073078407950718F071F49EF567C10EF419
:102CF000E0950B2EBA2FA02D0B01B90190010C010C
:102D0000CA01A0011124FF27591B99F0593F50F423
:102D1000503E68F11A16F040A22F232F342F44277B
:102D2000585FF3CF469537952795A795F040539573
:102D3000C9F77EF41F16BA0B620B730B840BBAF043
:102D40009150A1F0FF0FBB1F661F771F881FC2F7AE
:102D50000EC0BA0F621F731F841F48F487957795C2
:102D60006795B795F7959E3F08F0B3CF9395880F79
:102D700008F09927EE0F9795879508950CD0EBC032
:102D8000E3D040F0DAD030F021F45F3F19F0CCC04E
:102D9000511115C1CFC0F0D098F39923C9F3552331
:102DA000B1F3951B550BBB27AA276217730784073E
:102DB00038F09F5F5F4F220F331F441FAA1FA9F3F4
:102DC00033D00E2E3AF0E0E830D091505040E695E6
:102DD000001CCAF729D0FE2F27D0660F771F881F47
:102DE000BB1F261737074807AB07B0E809F0BB0B36
:102DF000802DBF01FF2793585F4F2AF09E3F51055A
:102E000068F092C0DCC05F3FECF3983EDCF386953F
:102E100077956795B795F7959F5FC9F7880F911DCF
:102E20009695879597F90895E1E0660F771F881FBB
:102E3000BB1F621773078407BA0720F0621B730B6E
:102E4000840BBA0BEE1F88F7E095089504D06894C0
:102E5000B111B5C0089598D088F09F5790F0B92F60
:102E60009927B751A0F0D1F0660F771F881F991FDF
:102E70001AF0BA95C9F712C0B13081F09FD0B1E015
:102E800008959CC0672F782F8827B85F39F0B93F25
:102E9000CCF3869577956795B395D9F73EF49095E1
:102EA0008095709561957F4F8F4F9F4F0895E8945F
:102EB00009C097FB3EF490958095709561957F4F82
:102EC0008F4F9F4F9923A9F0F92F96E9BB27939530
:102ED000F695879577956795B795F111F8CFFAF440
:102EE000BB0F11F460FF1BC06F5F7F4F8F4F9F4F71
:102EF00016C0882311F096E911C0772321F09EE8CF
:102F0000872F762F05C0662371F096E8862F70E034
:102F100060E02AF09A95660F771F881FDAF7880F0E
:102F20009695879597F9089597F99F6780E870E0DF
:102F300060E008959FEF80EC089500240A9416162F
:102F4000170618060906089500240A941216130697
:102F5000140605060895092E0394000C11F4882325
:102F600052F0BB0F40F4BF2B11F460FF04C06F5F41
:102F70007F4F8F4F9F4F089557FD9058440F551F17
:102F800059F05F3F71F04795880F97FB991F61F0EB
:102F90009F3F79F087950895121613061406551F62
:102FA000F2CF4695F1DF08C0161617061806991FCE
:102FB000F1CF86957105610508940895E894BB27C3
:102FC00066277727CB0197F90895DB018F939F93AD
:102FD0000E944818BF91AF91A29F800D911DA39FA1
:102FE000900DB29F900D11240895991B79E004C0B3
:102FF000991F961708F0961B881F7A95C9F7809538
:103000000895A1E21A2EAA1BBB1BFD010DC0AA1F29
:10301000BB1FEE1FFF1FA217B307E407F50720F041
:10302000A21BB30BE40BF50B661F771F881F991FBC
:103030001A9469F760957095809590959B01AC0105
:10304000BD01CF010895052E97FB1EF400940E9448
:103050003A1857FD07D00E94011807FC03D04EF420
:103060000C943A1850954095309521953F4F4F4F0D
:103070005F4F089590958095709561957F4F8F4F24
:103080009F4F0895EE0FFF1F0590F491E02D0994D6
:103090000E945318A59F900DB49F900DA49F800D82
:1030A000911D11240895A29FB001B39FC001A39F59
:1030B000700D811D1124911DB29F700D811D112471
:1030C000911D0895CF93DF938230910510F482E033
:1030D00090E0E091E505F091E60520E030E0A0E029
:1030E000B0E0309739F14081518148175907B8F065
:1030F0004817590771F482819381109729F013962C
:103100009C938E9312972CC09093E6058093E505CF
:1031100027C02115310531F04217530718F0A901D6
:10312000DB0101C0EF019A01BD01DF010280F381E3
:10313000E02DD7CF21153105F9F0281B390B2430AC
:10314000310580F48A819B816115710521F0FB01B5
:103150009383828304C09093E6058093E505FE0186
:10316000329644C0FE01E20FF31F819391932250E7
:103170003109398328833AC02091E3053091E40571
:10318000232B41F420910201309103013093E40597
:103190002093E305209100013091010121153105B3
:1031A00041F42DB73EB74091040150910501241B15
:1031B000350BE091E305F091E405E217F307A0F485
:1031C0002E1B3F0B2817390778F0AC014E5F5F4F7D
:1031D0002417350748F04E0F5F1F5093E4054093C6
:1031E000E3058193919302C0E0E0F0E0CF01DF912D
:1031F000CF910895CF93DF93009709F487C0FC0126
:10320000329713821282C091E505D091E60520978E
:1032100081F420813181280F391F8091E30590913D
:10322000E4058217930779F5F093E405E093E3054D
:103230006DC0DE0120E030E0AE17BF0750F41296FB
:103240004D915C9113979D014115510509F1DA01EA
:10325000F3CFB383A28340815181840F951F8A17D6
:103260009B0771F48D919C911197840F951F029685
:103270009183808312968D919C911397938382837F
:103280002115310529F4F093E605E093E5053EC0EC
:10329000D9011396FC93EE9312974D915D91A40F73
:1032A000B51FEA17FB0779F480819181840F951F80
:1032B0000296D90111969C938E93828193811396E5
:1032C0009C938E931297E0E0F0E08A819B810097B7
:1032D00019F0FE01EC01F9CFCE0102962881398167
:1032E000820F931F2091E3053091E40528173907D9
:1032F00069F4309729F41092E6051092E50502C0B2
:1033000013821282D093E405C093E305DF91CF913D
:103310000895FC0188279927E89421912032E9F348
:10332000293010F02E30C8F32B3241F02D3239F411
:10333000689404C00E94B519820F911D21912053F9
:103340002A30C0F31EF4909581959F4F0895DC01BB
:1033500001C06D9341505040E0F70895FB01DC013E
:1033600001900D920020E1F708957AE0979F902D4B
:10337000879F802D910D11240895AEE0B0E0E3EC1D
:10338000F9E10C94A01F0D891E8986E08C831A83B5
:1033900009838FEF9FE79E838D83AE01475E5F4F6A
:1033A0006F89788DCE0101960E94F819EF81F8851A
:1033B000E00FF11F10822E96E4E00C94BC1FAEE0EB
:1033C000B0E0E5EEF9E10C94A21F85E08C838B89D7
:1033D0009C899A838983AE01495E5F4F6D897E899E
:1033E000CE0101960E94481D2E96E2E00C94BE1F6D
:1033F000ACE0B0E0EEEFF9E10C94921F7C016B01C0
:103400008A01FC0117821682838181FFBDC1CE0132
:1034100001964C01F7019381F60193FD859193FF8D
:1034200081916F01882309F4ABC1853239F493FD92
:10343000859193FF81916F01853229F4B70190E066
:103440000E94E61EE7CF512C312C20E02032A0F460
:103450008B3269F030F4803259F0833269F42061A4
:103460002CC08D3239F0803339F4216026C02260BF
:10347000246023C0286021C027FD27C030ED380F0D
:103480003A3078F426FF06C0FAE05F9E300D112432
:10349000532E13C08AE0389E300D1124332E206243
:1034A0000CC08E3221F426FD6BC1206406C08C3620
:1034B00011F4206802C0883641F4F60193FD85912D
:1034C00093FF81916F018111C1CF982F9F7D9554FA
:1034D000933028F40C5F1F4FFFE3F9830DC0833650
:1034E00031F0833771F0833509F05BC022C0F801F9
:1034F000808189830E5F1F4F44244394512C5401D3
:1035000015C03801F2E06F0E711CF801A080B18087
:1035100026FF03C0652D70E002C06FEF7FEFC5018D
:103520002C870E949D1E2C0183012C852F77222E33
:1035300017C03801F2E06F0E711CF801A080B18055
:1035400026FF03C0652D70E002C06FEF7FEFC5015D
:103550002C870E94921E2C012C852068222E83012C
:1035600023FC1BC0832D90E048165906B0F4B70128
:1035700080E290E00E94E61E3A94F4CFF50127FC29
:10358000859127FE81915F01B70190E00E94E61EC0
:1035900031103A94F1E04F1A51084114510471F777
:1035A000E5C0843611F0893639F5F80127FF07C0E8
:1035B00060817181828193810C5F1F4F08C060819F
:1035C0007181882777FD8095982F0E5F1F4F2F768A
:1035D000B22E97FF09C090958095709561957F4FA9
:1035E0008F4F9F4F2068B22E2AE030E0A4010E9446
:1035F000311FA82EA81844C0853729F42F7EB22E7B
:103600002AE030E025C0F22FF97FBF2E8F36C1F0BF
:1036100018F4883579F0B4C0803719F0883721F074
:10362000AFC02F2F2061B22EB4FE0DC08B2D846051
:10363000B82E09C024FF0AC09F2F9660B92E06C07D
:1036400028E030E005C020E130E002C020E132E0B7
:10365000F801B7FE07C060817181828193810C5FA0
:103660001F4F06C06081718180E090E00E5F1F4FA8
:10367000A4010E94311FA82EA818FB2DFF77BF2E92
:10368000B6FE0BC02B2D2E7FA51450F4B4FE0AC03D
:10369000B2FC08C02B2D2E7E05C07A2C2B2D03C02A
:1036A0007A2C01C0752C24FF0DC0FE01EA0DF11D1E
:1036B0008081803311F4297E09C022FF06C07394F3
:1036C000739404C0822F867809F0739423FD13C08D
:1036D00020FF06C05A2C731418F4530C5718732C7F
:1036E000731468F4B70180E290E02C870E94E61E14
:1036F00073942C85F5CF731410F4371801C0312C56
:1037000024FF12C0B70180E390E02C870E94E61EE0
:103710002C8522FF17C021FF03C088E590E002C07E
:1037200088E790E0B7010CC0822F867859F021FD20
:1037300002C080E201C08BE227FD8DE2B70190E07C
:103740000E94E61EA51438F4B70180E390E00E94C1
:10375000E61E5A94F7CFAA94F401EA0DF11D808178
:10376000B70190E00E94E61EA110F5CF332009F4C6
:1037700051CEB70180E290E00E94E61E3A94F6CF67
:10378000F7018681978102C08FEF9FEF2C96E2E1CF
:103790000C94AE1F20FD09C0FC0123FD05C022FFD3
:1037A00002C07383628351834083089544FD10C037
:1037B00046FD10C0DB01FC01AA0FBB1FEE1FFF1F5F
:1037C0001094D1F76A0F7B1F8E1F9F1F31E003C03B
:1037D00033E001C034E0660F771F881F991F315016
:1037E000D1F7620F711D811D911D08950F931F93D5
:1037F000CF93DF938C01C8010E94A81EEC0197FDB6
:1038000008C00E947F1E892BB1F7B801CE010E942B
:10381000181FCE01DF91CF911F910F9108958F92C4
:103820009F92AF92CF92DF92EF92FF920F931F93EE
:10383000CF93DF93EC01A62E4A01022F0E94A81E0F
:10384000AC0155274B32510521F04D32510551F451
:103850000068AA9411F480E067C0CE010E94A81EFF
:1038600097FDF9CF102F1D7F302F307301F5803376
:10387000F1F4FF24FA94FA0C09F442C0CE010E943C
:10388000A81E97FD3DC0382F3F7D383551F4126496
:10389000AA94AA94A9F1CE010E94A81E97FF07C07E
:1038A0002FC006FF02C0126001C01261AF2CC12CF4
:1038B000D12C760120ED280F283080F014FF04C0B1
:1038C000BE010E94181F19C02A3040F016FFF8CF21
:1038D0002F7D3FEE320F363098F72750412FC7012A
:1038E000B6010E94D61B6B017C011260AA9459F0AC
:1038F000CE010E94A81E97FFDDCF11FD04C0ABCF03
:10390000C12CD12C760117FF08C0F094E094D0941C
:10391000C094C11CD11CE11CF11C212FB701A601D0
:10392000C4010E94CA1B81E0DF91CF911F910F91CA
:10393000FF90EF90DF90CF90AF909F908F90089581
:10394000A1E2B0E0E6EAFCE10C94971F5C017A0189
:103950008E010F5F1F4F680180E2D8011D928A958A
:10396000E9F7F501738040E050E0812CB0E0912C44
:1039700081E090E0F90173FCA59173FEA1918F01A4
:103980007A2F9F01A11103C080E090E07DC0AE3589
:1039900019F44115510559F1E92DF0E0E417F50747
:1039A0003CF4AD3569F1AD3219F4BB2319F103C014
:1039B000B11101C08A2EE72FE695E695E6958601BE
:1039C0000E0F111DF801A72FA7708C0102C0000F68
:1039D000111FAA95E2F7D801B081BA2BB0837815F0
:1039E00059F0781510F47F5FE6CF7150E4CF992439
:1039F000939403C0B1E001C0B0E04F5F5F4FBACF16
:103A0000BB2319F08E8180628E83911003C09924AC
:103A1000939415C0F601CE018196208120952193C3
:103A2000E817F907D1F7F3CFE114F10429F0D70132
:103A30008C93F70131967F01615001F1912CC50102
:103A400069A30E94A81E69A197FD16C0282F26957C
:103A500026952695F601E20FF11D208130E0AC019C
:103A60004770552702C0359527954A95E2F720FD06
:103A7000DBCFB5010E94181F911086CFE114F1042D
:103A800011F0D7011C92C801A196EDE00C94B31F70
:103A90004F925F927F928F929F92AF92BF92CF92FE
:103AA000DF92EF92FF920F931F93CF93DF931F92BA
:103AB000CDB7DEB78C012B017A01FC01178216828B
:103AC000A12CF801D380F201D3FC8591D3FE819122
:103AD000382F2F01882309F4FCC090E039830E941D
:103AE0007F1E3981892B21F0C8010E94F61BE9CF86
:103AF000353241F4F201D3FC3591D3FE31912F01DF
:103B0000353269F4C80139830E94A81E398197FDB6
:103B1000DEC03817B1F2B8010E94181FDAC03A327D
:103B200041F4D3FC3591D3FE31912F01BB24B394E2
:103B300001C0B12C712C20ED230F2A3090F4FB2D05
:103B4000F260BF2E672D70E080E090E040E20E94BE
:103B5000D61B762EF201D3FC3591D3FE31912F0185
:103B6000EACFB1FE03C0711003C0B3C077247A94CA
:103B7000383619F03C3661F014C0F201D3FC3591AF
:103B8000D3FE31912F01383661F4FB2DF860BF2E42
:103B90008B2D8460B82EF201D3FC3591D3FE319188
:103BA0002F01332309F495C0632F70E089ED90E075
:103BB00039830E94871E3981892B09F48AC0B0FCA1
:103BC00007C0F701C080D180C70102967C0102C006
:103BD000C12CD12C3E3651F4F8014681578160E06A
:103BE00070E02B2DC6010E94CA1B6BCF3336A1F4A7
:103BF000B1FC02C077247394C8010E94A81E97FDEF
:103C000066C0C114D10429F0F6018083C601019673
:103C10006C017A9489F757C03B3559F49201A6019B
:103C2000672DC8010E94A01C2C01009709F04BC011
:103C300045C0C80139830E94F61B398197FD47C0F2
:103C40003F3669F128F4343631F1393679F12BC039
:103C5000333769F03537F9F026C0C114D10429F0A3
:103C6000F6018082C60101966C017A9471F0C80158
:103C70000E94A81E4C0197FD08C00E947F1E892B40
:103C800061F3B801C4010E94181FC114D104D9F016
:103C9000F601108218C0FB2DF062BF2E07C08B2DDD
:103CA0008061B82E03C09B2D9064B92E2B2DA601E8
:103CB000672DC8010E940F1C811105C0F801838186
:103CC000807329F406C0B0FCFCCEA394FACEAA20DF
:103CD00019F08A2D90E002C08FEF9FEF0F90DF91D7
:103CE000CF911F910F91FF90EF90DF90CF90BF90F9
:103CF000AF909F908F907F905F904F90089591111B
:103D00000EC1803219F089508550D0F70895FC011A
:103D10000590061621F00020D9F7C00108953197CB
:103D2000CF010895FC010590615070400110D8F753
:103D3000809590958E0F9F1F0895FC0161507040F3
:103D400001900110D8F7809590958E0F9F1F0895D0
:103D5000CF93DF93EC012B8120FF33C026FF0AC0F5
:103D60002F7B2B838E819F8101969F838E838A81F7
:103D700090E029C022FF0FC0E881F9818081992756
:103D800087FD9095009719F420622B831AC0319615
:103D9000F983E8830EC0EA85FB85099597FF09C082
:103DA0002B81019611F480E101C080E2822B8B838C
:103DB00008C02E813F812F5F3F4F3F832E8399277D
:103DC00002C08FEF9FEFDF91CF9108950F931F9364
:103DD000CF93DF93182F092FEB018B8181FD03C057
:103DE0008FEF9FEF20C082FF10C04E815F812C813A
:103DF0003D81421753077CF4E881F9819F012F5FD1
:103E00003F4F39832883108306C0E885F985812FC9
:103E10000995892B29F72E813F812F5F3F4F3F83E3
:103E20002E83812F902FDF91CF911F910F910895B5
:103E3000FB01238120FF12C026FD10C08F3F3FEF02
:103E4000930761F082832F7D20642383268137814D
:103E50002150310937832683992708958FEF9FEFEB
:103E60000895FA01AA27283051F1203181F1E89410
:103E70006F936E7F6E5F7F4F8F4F9F4FAF4FB1E05D
:103E80003ED0B4E03CD0670F781F891F9A1FA11D58
:103E9000680F791F8A1F911DA11D6A0F711D811D59
:103EA000911DA11D20D009F468943F912AE0269F1E
:103EB00011243019305D3193DEF6CF010895462F7D
:103EC0004770405D4193B3E00FD0C9F7F6CF462F5E
:103ED0004F70405D4A3318F0495D31FD40524193C7
:103EE00002D0A9F7EACFB4E0A69597958795779584
:103EF0006795BA95C9F700976105710508959B010B
:103F0000AC010A2E06945795479537952795BA9593
:103F1000C9F7620F731F841F951FA01D089599276D
:103F2000882708952F923F924F925F926F927F92CF
:103F30008F929F92AF92BF92CF92DF92EF92FF92B9
:103F40000F931F93CF93DF93CDB7DEB7CA1BDB0B65
:103F50000FB6F894DEBF0FBECDBF09942A8839880A
:103F600048885F846E847D848C849B84AA84B98411
:103F7000C884DF80EE80FD800C811B81AA81B9811D
:103F8000CE0FD11D0FB6F894DEBF0FBECDBFED0131
:103F9000089510E0CCEED0E004C0FE010E94441869
:0C3FA0002296CE3ED107C9F7F894FFCF5F
:103FAC000000E705800001000000415049207665C3
:103FBC007273696F6E20312E320A426C696E6B0A15
:103FCC0009474554202F312F3C726174652D696E61
:103FDC002D6D696C6C697365636F6E64733E2F0A2B
:103FEC004C696E650A09474554202F322F0A4D6FD4
:103FFC0076650A09474554202F332F3C6C6566744F
:10400C002D776865656C2D73706565645B2D31303B
:10401C00303A3130305D3E2F3C72696768742D77D1
:10402C006865656C2D73706565645B2D3130303A55
:10403C003130305D3E2F0A53696E670A094745548B
:10404C00202F342F3C6E6F74653E2F3C647572616B
:10405C0074696F6E3E0A44697374616E63650A0914
:10406C00474554202F352F0A506978656C0A09474B
:10407C004554202F362F3C7265643E2F3C67726589
:10408C00656E3E2F3C626C75653E0A4C69676874C0
:10409C000A09474554202F372F0A4C65640A0947F3
:1040AC004554202F382F3C73746174655B307C3120
:1040BC005D3E0A494D550A09474554202F392F0AB0
:1040CC00436865636B204F4B0A09474554202F31D9
:1040DC00302F0A4150490A09474554202F31312FBE
:1040EC000A00485454502F312E31203430302042A5
:1040FC00616420526571756573740A436F6E6E65E9
:10410C006374696F6E3A20636C6F73650A436F6EEC
:10411C0074656E742D547970653A206170706C6999
:10412C00636174696F6E2F6A736F6E0A436F6E747E
:10413C00656E742D4C656E6774683A20300A416365
:10414C00636573732D436F6E74726F6C2D416C6C61
:10415C006F772D4F726967696E3A202A0A0A0048F8
:10416C005454502F312E3120323030204F4B0A43D3
:10417C006F6E6E656374696F6E3A20636C6F7365F6
:10418C000A436F6E74656E742D547970653A2061B4
:10419C0070706C69636174696F6E2F6A736F6E0AED
:1041AC00436F6E74656E742D4C656E6774683A203F
:1041BC0025640A4163636573732D436F6E74726F6C
:1041CC006C2D416C6C6F772D4F726967696E3A205C
:1041DC002A0A0A257300E80301FF252A5B5E2F5D7E
:1041EC00252A63255B5E2F5D252A63255B5E2F5D8B
:1041FC00252A63255B5E2F5D252A63255B5E2F5D7B
:10420C00005B25642C2025645D00256C640025640E
:10421C00005B25642C2025642C2025642C2025642F
:10422C002C2025642C2025642C2025645D004F4B0C
:10423C000000000000BA0B8D0B620B6A0B7D0B8C1F
:10424C000B00000000BC1122133E11571149119AAA
:02425C0011004F
:00000001FF
