:100000000C9475000C949D000C949D000C949D0024
:100010000C949D000C949D000C949D000C948815EC
:100020000C949D000C949D000C949D000C94E9048C
:100030000C949D000C949D000C949D000C949D00CC
:100040000C94680F0C949D000C945F120C94911208
:100050000C949D000C949D000C949D000C949D00AC
:100060000C94530D0C949D000B0314032303A50360
:10007000AF030E0420043A04430400000008000209
:10008000010000030407000000000000000001025E
:100090000408102040800102040810200102040816
:1000A00010200404040404040404020202020202F4
:1000B00003030303030300000000230026002900BC
:1000C00000000000250028002B0000000000240094
:1000D00027002A00026364696E6F70737578585B3D
:1000E00000007602690CC1128B0211241FBECFEFF3
:1000F000D8E0DEBFCDBF12E0A0E0B1E0E2E6FFE372
:1001000002C005900D92A637B107D9F724E0A6E703
:10011000B2E001C01D92AB3AB207E1F710E0C8EEC1
:10012000D0E004C02297FE010E942618C23ED107EB
:10013000C9F70E942C160C94A41F0C940000CF92B7
:10014000DF92EF92FF920F931F93E82FF92F05C0D4
:10015000015011092109310961F190819623941709
:10016000B9F305C0015011092109310911F190813C
:1001700096239413F7CFC12CD12CE12CF12C0AC07B
:100180008FEFC81AD80AE80AF80A0C151D052E05C3
:100190003F0579F080818623841791F36C2D7D2DA6
:1001A0008E2D9F2D1F910F91FF90EF90DF90CF909C
:1001B000089560E070E080E090E01F910F91FF9063
:1001C000EF90DF90CF9008951092C2021092C1027A
:1001D0001092C0021092BF0281E090E09093BE02A4
:1001E0008093BD020E94B20F6093B9027093BA026D
:1001F0008093BB029093BC0210929D0210929C02CD
:1002000061E08DE00E946B1061E087E00E946B105E
:1002100061E08CE00E946B1060E08EE00E946B1049
:1002200084EA92E00E94FD0640E060E080E00E94E7
:1002300085099B01AC0160E070E084EA92E00E94D5
:10024000200984EA92E00E9481078CE293E00E94F8
:10025000DB0B85E892E00E94300F85E892E00E9477
:10026000600F80937602109205031092040326E03B
:1002700040E051EE60E070E085EF93E00C940312F3
:10028000AF92BF92CF92DF92EF92FF920F931F93A4
:10029000CF93DF93CDB7DEB7C858D1090FB6F89426
:1002A000DEBF0FBECDBF8E010F5F1F4F1F930F9399
:1002B0007E0121E2E20EF11CFF92EF926E0131E429
:1002C000C30ED11CDF92CF925E0121E6A20EB11CBB
:1002D000BF92AF9222E032E03F932F939F938F9390
:1002E0000E94BA190FB6F894DEBF0FBECDBF0196BB
:1002F00099F0C5010E946B19B82EA92EC6010E9463
:100300006B19D82EC92EC7010E946B19F82EE92E41
:10031000C8010E946B190EC08FEF9FEFFF24FA9463
:10032000EE24EA94DD24DA94CC24CA94BB24BA9453
:10033000AA24AA94CF57DF4FB882C158D040CE57D5
:10034000DF4FA882C258D040CD57DF4FD882C35864
:10035000D040CC57DF4FC882C458D040CB57DF4F76
:10036000F882C558D040CA57DF4FE882C658D040FF
:10037000C957DF4F8883C758D040C857DF4F98838D
:10038000C858D0402B2D3A2D4D2D5C2D6F2D7E2D34
:10039000C857DF4F0FB6F894DEBF0FBECDBFDF9159
:1003A000CF911F910F91FF90EF90DF90CF90BF9072
:1003B000AF9008950F931F93CF93DF93CDB7DEB720
:1003C000DA950FB6F894DEBF0FBECDBFFC010190E9
:1003D0000020E9F73197E81BF90B9F938F93FF9368
:1003E000EF9387E891E09F938F938E010F5F1F4FEC
:1003F0001F930F930E949819B80185EF93E00E9414
:1004000042130FB6F894DEBF0FBECDBFD3950FB623
:10041000F894DEBF0FBECDBFDF91CF911F910F913A
:100420000895CF92DF92EF92FF928091BD0290915A
:10043000BE02892B09F055C08091BF029091C00285
:10044000892B91F41092C2021092C10281E090E0D7
:100450009093BE028093BD0260E08DE0FF90EF902C
:10046000DF90CF900C94A4100E94B20F6B017C011E
:100470008091B9029091BA02A091BB02B091BC02E6
:10048000B701A601481B590B6A0B7B0B8091BF0279
:100490009091C002AA2797FDA095BA2F84179507BF
:1004A000A607B707F4F48091C1029091C202892B8C
:1004B00039F481E090E09093C2028093C10204C0BD
:1004C0001092C2021092C1026091C1028DE00E949E
:1004D000A410C092B902D092BA02E092BB02F0928C
:1004E000BC02FF90EF90DF90CF90089522E530E0BE
:1004F0004BE061E070E084EA92E00E94F80881EA53
:1005000092E00E94A5058EE992E00E94A50585E88B
:1005100092E00C94800E84EA92E00C94E9068F92AB
:100520009F92AF92BF92CF92DF92EF92FF920F9382
:100530001F93CF93DF93CDB7DEB728970FB6F8940C
:10054000DEBF0FBECDBF85EF93E00E9420111816CD
:1005500019060CF02AC2809104039091050380973C
:1005600024F0109205031092040385EF93E00E949B
:10057000391180930303873429F4109205031092F4
:1005800004030EC08A3061F4E0910403F091050386
:10059000ED51FD4F1082109205031092040312C01A
:1005A0002091040330910503A9014F5F5F4F5093E1
:1005B000050340930403F901ED51FD4F80838A3018
:1005C00009F0F3C18091E302873409F0EEC1809114
:1005D000E402853409F0E9C18091E502843509F02F
:1005E000E4C183EE92E00E94400129833A834B8369
:1005F0005C836D837E838F830B811C818D809E80C5
:10060000E981FA813197E930F10508F0C8C1EC5C65
:10061000FF4F0C9424181093C0020093BF02109255
:10062000BE021092BD022AC18FE00E942510182F31
:10063000092F84E10E9425109F938F930F931F939E
:1006400089E292E0E2C00115110539F481EA92E0F5
:100650000E94450610929D0236C080919D02811134
:1006600009C064E070E081EA92E00E943F0681E008
:1006700080939D02B801882777FD8095982F1F925F
:100680001F921F9224EB2F93A12CB12C650114E62D
:10069000E12EF12C00E010E02CE93FEF4FEF5FEF8F
:1006A0000E94E4150F900F900F900F90653B71051D
:1006B00014F064EB70E077FF02C060E070E081EA64
:1006C00092E00E9484068114910439F48EE992E04C
:1006D0000E94450610929C02D1C080919C0281111B
:1006E00009C065E070E08EE992E00E943F0681E07B
:1006F00080939C02B401882777FD8095982F1F92E4
:100700001F921F9224EB2F93A12CB12C65011CE9A1
:10071000E12EFF24FA940FEF1FEF24E630E040E0D3
:1007200050E00E94E4150F900F900F900F90653BE2
:10073000710514F064EB70E077FF02C060E070E0D8
:100740008EE992E00E94840699C09401442737FD07
:100750004095542FB80187E00E9444138FC060E099
:100760008CE00E94A41082E090E00E94E10F61E022
:100770008CE00E94A4108AE090E00E94E10F60E00B
:100780008CE00E94A41020E432E44FE050E061E0ED
:100790008EE00E94DA100E943917609394027093E1
:1007A000950280939602909397022DEC3CEC48E6DC
:1007B00052E40E94A0160E94081765367105810553
:1007C00091054CF4609398027093990280939A0279
:1007D00090939B020CC084E690E0A0E0B0E0809390
:1007E000980290939902A0939A02B0939B028091F1
:1007F0009B028F9380919A028F93809199028F939D
:10080000809198028F9382E392E09F938F9383EC81
:1008100092E09F938F930E949819B7C04F81682DE3
:10082000802F0E9485099B01AC0160E070E084EAA2
:1008300092E00E94200984EA92E00E9481071EC093
:1008400085E10E9425109F938F9386E392E09F930A
:100850008F9383EC92E09F938F930E94981983EC7F
:1008600092E00E94DA010F900F900F900F900F907E
:100870000F909BC0602F8DE00E94A41088E292E050
:100880000E94DA0192C080917602882391F189E773
:10089000C82E82E0D82E9BE7E92E92E0F92E0DE7D4
:1008A00012E02FE732E041E852E063E872E085E8C9
:1008B00092E00E949A0E85E892E00E94020FBC012D
:1008C000882777FD8095982F0E943B1720E030E025
:1008D00048E052E40E94A01626E636EA46EB53E4CE
:1008E0000E943C160E94081770937802609377026A
:1008F0001CC010927A021092790210927C0210921F
:100900007B0210927E0210927D0210928002109261
:100910007F02109282021092810210928402109241
:100920008302109278021092770280918302909154
:100930008402209178022F93209177022F932091A7
:100940007A022F93209179022F9320917C022F938A
:1009500020917B022F9320917E022F9320917D0284
:100960002F939F938F93209182022F932091810246
:100970002F939F938F9389E392E09F938F9383ECC0
:1009800092E09F938F930E94981983EC92E00E94CB
:10099000DA010FB6F894DEBF0FBECDBF06C06AE025
:1009A00071E085EF93E00E94421328960FB6F89409
:1009B000DEBF0FBECDBFDF91CF911F910F91FF9092
:1009C000EF90DF90CF90BF90AF909F908F900C945E
:1009D00011021F920F920FB60F9211242F933F9383
:1009E0004F935F936F937F938F939F93AF93BF9337
:1009F000EF93FF938091070387FF05C01092850056
:100A0000109284001AC020910703332727FD3095E8
:100A10008091060390E0281739077CF48091070342
:100A2000992787FD9095FC01EE0FFF1FE80FF91F36
:100A3000E85FFC4F808186FD15C0809107038F5FC2
:100A40008093070320910703332727FD309580917A
:100A5000060390E028173907BCF4809107038C3017
:100A60005CF112C080910703992787FD9095FC01E6
:100A7000EE0FFF1FE80FF91FE85FFC4F808160E079
:100A80008F730E94A410D9CF80918400909185002B
:100A9000049680329E4418F480E29EE405C0809162
:100AA000840090918500049690938900809388003B
:100AB0008FEF8093070338C0209184003091850028
:100AC00080910703992787FD9095FC01EE0FFF1F8A
:100AD000E80FF91FE85FFC4F81819281820F931F1D
:100AE000909389008093880080910703992787FD60
:100AF0009095FC01EE0FFF1FE80FF91FE85FFC4F18
:100B0000808186FF11C080910703992787FD90950A
:100B1000FC01EE0FFF1FE80FF91FE85FFC4F80811B
:100B200061E08F730E94A410FF91EF91BF91AF918C
:100B30009F918F917F916F915F914F913F912F91F5
:100B40000F900FBE0F901F901895209106032C3028
:100B5000A0F431E0320F30930603FC012083822F92
:100B600090E0FC01EE0FFF1FE80FF91FE85FFC4F5C
:100B70008CED95E09283818308952FEFFC01208313
:100B80000895DF92EF92FF920F931F93CF93DF931D
:100B9000EC01D62E7A01890188818C3008F066C07C
:100BA00061E08D2D0E946B108881A82FB0E0FD01BF
:100BB000EE0FFF1FEA0FFB1FE85FFC4F2D2D2F7379
:100BC0009081907C922B908360E272E06E197F0995
:100BD00077FF02C06D5F7F4F759567957595679537
:100BE000698340E659E0401B510B57FF02C04D5F3F
:100BF0005F4F55954795559547954A836CE00E9400
:100C0000D7179CE0899FB001112420E030E0A901B2
:100C1000460F571FFA01EE0FFF1FE40FF51FE85FA5
:100C2000FC4F908196FD16C02F5F3F4F2C30310551
:100C300071F781110FC01092800082E080938100D3
:100C40001092850010928400B19A80916F008260AA
:100C500080936F00888190E0FC01EE0FFF1FE80F8A
:100C6000F91FE85FFC4F8081806480838881DF9179
:100C7000CF911F910F91FF90EF90DF90089520E6A4
:100C800039E040E252E00C94C105FC01808190E023
:100C9000FC01EE0FFF1FE80FF91FE85FFC4F80819A
:100CA0008F7B80830895FC0180818C3060F5918179
:100CB00028E830E0291B310997FD3395220F331FB7
:100CC000220F331F621773077CF0928128E532E010
:100CD000291B310997FD3395220F331F220F331F34
:100CE000621773070CF49B014FB7F89490E0225001
:100CF0003109FC01EE0FFF1FE80FF91FE85FFC4F01
:100D0000328321834FBF08954F925F926F927F92FB
:100D1000AF92BF92CF92DF92EF92FF920F931F9309
:100D2000CF93DF93EC01603282E078070CF040C093
:100D300077FD06C0653B71052CF064EB70E002C0E6
:100D400060E070E0898128E830E0281B310987FDE8
:100D50003395220F331F220F331F5901CC24B7FCC8
:100D6000C094DC2C882777FD8095982F2A8148E550
:100D700052E0421B510927FD5395440F551F440F64
:100D8000551F2A01662457FC6094762C7F926F923F
:100D90005F924F9214EBE12EF12C00E010E020E086
:100DA00030E0A9010E94E4150F900F900F900F9072
:100DB000CE01DF91CF911F910F91FF90EF90DF90C7
:100DC000CF90BF90AF907F906F905F904F900C94BA
:100DD0005306CF93DF93EC0188859985009711F036
:100DE0000E94DC188E8187FD05C060E0DF91CF9105
:100DF0000C946B10DF91CF910895CF93DF93EC01AA
:100E00008E8187FD07C061E00E946B1060E08E81DB
:100E10000E94A41081E08983DF91CF910895EF9221
:100E2000FF920F931F93CF93DF93EC017B01888593
:100E30009985009711F00E94DC189D858A8598138A
:100E400003C083E090E002C084E090E08E9D8001CA
:100E50008F9D100D9E9D100D11241D830C83C801C4
:100E60000E94441899878887009741F0A80160E0A4
:100E700070E00E948919FB82EA8204C01D821C82F4
:100E80001B821A82DF91CF911F910F91FF90EF90FB
:100E90000895FC0121E095858285981320E0CB011F
:100EA00036E0969587953A95E1F7482F4370458748
:100EB000CB0154E0969587955A95E1F7382F33701A
:100EC0003287CB0196958795969587958370838712
:100ED000862F8370848781E06F3F710511F008F0E1
:100EE00080E0808380859185892B51F091E04313C8
:100EF00090E0921729F062817381CF010C940F0763
:100F00000895CF92DF92EF92FF920F931F93CF93AA
:100F1000DF93CDB7DEB729970FB6F894DEBF0FBECB
:100F2000CDBF8C01DC0118968D919C911997892B6E
:100F300009F41DC10E94BE0FF801C684D784E08861
:100F4000F1886C197D098E099F096233710581054D
:100F5000910580F3F894848195819A838983A08593
:100F6000B1857D01EFEFEE1AFE0A8C918987D801D9
:100F70008C9152960D90BC91A02D882309F4BDC090
:100F80001D82AB32B10509F059C09BB1F8018489CB
:100F9000982B98879BB1809589238F838F818E832F
:100FA000898587FF02C088858E8358856F81498532
:100FB0003E812D8189819A81D7015BB9262F3BB96A
:100FC00000C046FD252F6BB900C05BB9362F2BB989
:100FD00000C045FD352F6BB900C05BB9262F3BB96A
:100FE00000C044FD252F6BB900C05BB9362F2BB96B
:100FF00000C043FD352F6BB900C05BB9262F3BB94C
:1010000000C042FD252F6BB900C05BB9362F2BB94C
:1010100000C041FD352F6BB900C05BB9262F3BB92D
:1010200000C040FD252F6BB901975BB9362F2BB956
:101030004D9147FD352F6BB901F65BC0959709F0CF
:101040008CC095B1F8018489982B988795B18095CB
:1010500089238F838F818E83898587FF02C088854E
:101060008E8358856F8149853E812D8189819A8142
:10107000D70155B9262F35B900C046FD252F65B9D2
:1010800000C055B9362F25B900C045FD352F65B9CB
:1010900000C055B9262F35B900C044FD252F65B9CC
:1010A00000C055B9362F25B900C043FD352F65B9AD
:1010B00000C055B9262F35B900C042FD252F65B9AE
:1010C00000C055B9362F25B900C041FD352F65B98F
:1010D00000C055B9262F35B900C040FD252F65B990
:1010E000019755B9362F25B94D9147FD352F65B973
:1010F00001F649873E832D832EC09C91F801848997
:10110000982B98879C91809589238F838F818C83DE
:1011100088E08B8358856F8149853B812C8189814B
:101120009A81F7015C9347FD252F2C93262F3A9542
:1011300031F0441F6C9300C000C000C0F3CF6C932B
:10114000000038E04191019769F7F801B38BA28B59
:1011500049873B832C839A83898378940E94BE0FAE
:10116000D8011E966D937D938D939C9351972996EC
:101170000FB6F894DEBF0FBECDBFDF91CF911F91A8
:101180000F91FF90EF90DF90CF9008951F93CF9332
:10119000DF93EC01162F8981882331F08E8187FD42
:1011A00003C060E00E946B101E838981882341F098
:1011B00061E0812F0E946B1060E0812F0E94A410DB
:1011C000812F90E0FC01EE55FF4FE491F0E0EE0F2F
:1011D000FF1FE054FF4F259134913B8B2A8BFC017C
:1011E000E257FF4F84918C8BDF91CF911F9108952F
:1011F000EF92FF920F931F93CF93DF931F92CDB780
:10120000DEB77C018B01FC011182178211861086EA
:1012100016861786108A118AB90149830E944907E8
:10122000B801C7010E940F074981642FC7010F90C1
:10123000DF91CF911F910F91FF90EF900C94C60812
:10124000CF92DF92EF92FF920F931F93CF93DF9392
:10125000FC01828193816817790708F04DC0CA01AB
:10126000AA27BB27182FC32ED42EE52EFF24DC2D52
:10127000C22F0781002361F0809FC0011124192F24
:10128000C09E60011124DD2D209FC0011124C92FB3
:10129000F5848285A085B185F81208C0CB01880F3E
:1012A000991F860F971F8A0F9B1F17C0CB01880FAE
:1012B000991F880F991F8A0F9B1F452F5527662757
:1012C0007727DC01AF0DB11D002329F0409F90016D
:1012D0001124232F01C0242F2C932285DC01A20F7F
:1012E000B11D1C932385DC01A20FB11DDC93248565
:1012F000FC01E20FF11DC083DF91CF911F910F918F
:10130000FF90EF90DF90CF900895962F50E060E02F
:1013100070E0592B682BCB01BA010895EF92FF9230
:101320000F931F93CF93DF9300D0CDB7DEB7062F77
:10133000142F682F8CE293E029833A830E94E50BF7
:10134000602F8CE293E00E949C0B2981022FE22EF9
:101350003A81F32E8E2D801B811740F4F7016191A5
:101360007F018CE293E00E949C0BF4CF8CE293E02F
:101370000E94660C91E0811190E0892F0F900F90F0
:10138000DF91CF911F910F91FF90EF900895CF9330
:10139000DF931F92CDB7DEB749839E012F5F3F4F8A
:1013A00041E00E948E090F90DF91CF9108953F9206
:1013B0004F925F926F927F928F929F92AF92BF9265
:1013C000CF92DF92EF92FF920F931F93CF93DF9311
:1013D00000D000D000D0CDB7DEB7682E562E742EC8
:1013E0003A8329830E94B20F6B017C01312C412C7E
:1013F000872D90E09C838B834801A12CB12C37145E
:10140000B0F5662D8CE293E00E94E50B652D8CE231
:1014100093E00E949C0B8CE293E00E94660C662D88
:101420008CE293E00E94E50B4B815C8143195109EA
:101430004132510514F040E250E0662D8CE293E019
:101440000E94630C8CE293E00E94440B892B59F1BB
:101450000115110579F10E94B20F6C197D098E09F1
:101460009F09681579058A059B0520F11CC00115A7
:10147000110589F10E94B20F6C197D098E099F092F
:1014800020E030E0601771078207930720F1872D75
:1014900090E0242D332727FD309528173907DCF4F9
:1014A00044244A9418C0872D90E2971508F480E2EE
:1014B000380EA5CFE981FA81E40DF11D47FCFA95BC
:1014C000FE83ED838CE293E00E944C0BED81FE8164
:1014D00080834394B7CF842D26960FB6F894DEBF51
:1014E0000FBECDBFDF91CF911F910F91FF90EF9075
:1014F000DF90CF90BF90AF909F908F907F906F9034
:101500005F904F903F9008950F931F9389019A0128
:1015100041E00E94D7091F910F910895CF92DF9269
:10152000EF92FF920F931F93CF93DF931F92CDB74C
:10153000DEB7C42ED22E9701AE014F5F5F4F0E94DF
:10154000840A8823F1F04C2D50E04D1951094F5F6A
:101550005F4F61E070E002C0660F771FDA94E2F738
:1015600061507109042E01C0660F0A94EAF72981BF
:10157000262330E002C0359527954A95E2F7F80119
:1015800020830F90DF91CF911F910F91FF90EF90EB
:10159000DF90CF900895EF92FF920F931F93CF9318
:1015A000DF931F92CDB7DEB7182F062FF42EE22E51
:1015B0002091FE013091FF01AE014F5F5F4F0E940D
:1015C000840A898121E030E00F2C01C0220F0A94A7
:1015D000EAF7EE2019F0482F422B03C0422F409526
:1015E00048234983602F812F0E94C7090F90DF9104
:1015F000CF911F910F91FF90EF900895DF92EF929E
:10160000FF920F931F93CF93DF931F92CDB7DEB757
:10161000F82EE62ED42E122F2091FE013091FF01DC
:10162000AE014F5F5F4F0E94840A882319F14D2D50
:1016300050E0411B51094F5F5F4FE1E0F0E002C015
:10164000EE0FFF1F1A95E2F73197042E01C0EE0F3F
:101650000A94EAF701C0000F4A95EAF74E2F409529
:1016600089814823E0234E2B49836E2D8F2D0E94C4
:10167000C70901C080E00F90DF91CF911F910F91BA
:10168000FF90EF90DF90089580915C0390E02091AF
:101690005D03821B9109089520915D0380915C0395
:1016A000281750F4E22FF0E0E25AFC4F808190E0DE
:1016B0002F5F20935D0308958FEF9FEF0895E091D2
:1016C0005D0380915C03E81730F4F0E0E25AFC4FD0
:1016D000808190E008958FEF9FEF08950895CF9255
:1016E000DF92EF92FF920F931F93CF93DF937C01D2
:1016F000CB018A0120913803222389F0EB016B0191
:10170000C40ED51ECC15DD0569F06991D701ED91A8
:10171000FC910190F081E02DC7010995F3CF642F72
:101720000E942A0DC801DF91CF911F910F91FF9068
:10173000EF90DF90CF900895CF93DF931F92CDB7B6
:10174000DEB76983209138032223D1F02091390339
:10175000203240F021E030E0FC013383228380E03E
:1017600090E015C080913A03E82FF0E0E55CFC4F73
:10177000998190838F5F80933A038093390305C0EA
:1017800061E0CE0101960E942A0D81E090E00F9069
:10179000DF91CF910895FC011382128248EE53E04D
:1017A00060E070E044835583668377838AE592E046
:1017B00091838083089510925D0310925C031092D0
:1017C0003A03109239030C946D0C81E08093380336
:1017D00060935B0310923A031092390308950F93BC
:1017E000062F21E0409139036BE373E080915B03A6
:1017F0000E94D30C10923A031092390310923803CE
:101800000F9108958F929F92AF92BF92CF92DF92E5
:10181000EF92FF920F931F93CF93DF93EC01F62E7D
:10182000D42E48015901EE2019F10E94E50B1E2D1E
:10183000143008F013E01150B8F0E881F98128E085
:10184000129FB0011124A501940104C0569547953B
:10185000379527956A95D2F7CA01B9010190F081B1
:10186000E02DCE010995E7CF60E0CE010E94EF0B9D
:101870004D2D413208F040E22C2D6EE573E08F2DA6
:101880000E948B0C10925D0380935C03DF91CF91DB
:101890001F910F91FF90EF90DF90CF90BF90AF908E
:1018A0009F908F900895CF92EF920F931F93C22E27
:1018B000E12C00E010E098010E94020C1F910F91B2
:1018C000EF90CF90089521E00C94530C61E00C94BC
:1018D000EF0B8CE293E00C94CB0B1092EB0381E0C6
:1018E0008093E9031092E80361E082E10E94A41072
:1018F00061E083E10E94A410E9EBF0E080818E7F3B
:10190000808380818D7F808380E28093B80085E42E
:101910008093BC000895413208F043C09091EB03DE
:101920009111FCCF91E09093EB032093E9032FEF0B
:1019300020937E031092C303240F2093C20390933D
:10194000EA039091EA03880F892B8093EA03809140
:10195000E803813061F41092E8038091EA038093F8
:10196000BB008091BC0083FDF8CF85EC01C085EE03
:101970008093BC008091EB038130E1F38091C3033D
:10198000841710F44091C30324EC33E0FB01D90128
:101990008A2F821B841718F48D918193F9CF842F9D
:1019A000089580E008950F93413208F04AC0909165
:1019B000EB039111FCCF92E09093EB030093E903CA
:1019C0009FEF90937E031092C3034093C203FB01E9
:1019D00064EC73E0DB019A2F961B941718F4919135
:1019E0009D93F9CF1092EA039091EA03880F892B17
:1019F0008093EA038091E803813061F41092E80358
:101A00008091EA038093BB008091BC0083FDF8CFF6
:101A100085EC01C085EE8093BC00222321F08091EB
:101A2000EB038230E1F380917E038F3F61F0809180
:101A30007E03803251F080917E03803341F483E055
:101A400007C081E005C080E003C082E001C084E0FF
:101A50000F910895613298F42091EB03243089F4BA
:101A60006093A003FC0182EA93E0DC012A2F281B8B
:101A7000261718F421912D93F9CF80E0089581E085
:101A8000089582E0089585ED8093BC008091BC00AC
:101A900084FDFCCF1092EB03089585EC8093BC008D
:101AA0001092EB0308951F920F920FB60F9211241C
:101AB0002F933F934F935F936F937F938F939F9356
:101AC000AF93BF93EF93FF938091B900887F8036E7
:101AD00009F49EC078F5883209F45DC090F4803135
:101AE00009F456C038F4882309F4F5C0883009F4A5
:101AF0004FC0F5C0883109F44EC0803209F45FC090
:101B0000EEC0803409F46AC058F4803309F457C039
:101B1000883309F0E4C080937E030E944D0DDFC03E
:101B2000803509F44FC0883509F45DC0883409F068
:101B3000D6C0D3C0883909F4C4C0A8F4883709F4E2
:101B400067C038F4883609F463C0803709F460C090
:101B5000C6C0883809F4B5C0803909F45FC0803840
:101B600009F0BDC05BC0803B09F483C038F4803A03
:101B700009F466C0883A09F47CC0B1C0803C09F41D
:101B8000A4C0883C09F4A1C0883B09F487C0A7C061
:101B90008091EA0310C09091C3038091C20398170B
:101BA00070F5E091C30381E08E0F8093C303F0E0F2
:101BB000EC53FC4F80818093BB0085EC83C0809305
:101BC0007E038BC0E091C30381E08E0F8093C3033B
:101BD0008091BB00F0E0EC53FC4F80839091C303F5
:101BE0008091C2036BC0E091C30381E08E0F8093AC
:101BF000C3038091BB00F0E0EC53FC4F80838091E5
:101C0000E90381116AC081E08093E80384EA5EC041
:101C100083E08093EB0310927F03CFCF80917F030B
:101C2000803208F04EC0E0917F0381E08E0F8093F8
:101C30007F038091BB00F0E0E058FC4F8083BDCF74
:101C40000E944D0D80917F03803230F4E0917F033C
:101C5000F0E0E058FC4F108260917F0370E0E0916B
:101C6000E403F091E50380E893E0099510927F0387
:101C700036C084E08093EB031092A1031092A0037E
:101C8000E091E603F091E70309958091A0038111AB
:101C900005C081E08093A0031092A203E091A1030C
:101CA00081E08E0F8093A103F0E0EE55FC4F808120
:101CB0008093BB009091A1038091A003981708F432
:101CC0007CCF85E88093BC000AC085EC8093BC0083
:101CD0001092EB0304C010927E030E94430DFF910B
:101CE000EF91BF91AF919F918F917F916F915F9194
:101CF0004F913F912F910F900FBE0F901F9018950D
:101D000028E6FC01208308950F93062F22E044E08B
:101D10006BE1FC0180810E94FE0A0F9108950F93F0
:101D2000062F22E044E06CE1FC0180810E94FE0A63
:101D30000F9108954F925F926F927F928F929F9230
:101D4000AF92BF92CF92DF92EF92FF920F931F93C9
:101D5000CF93DF93EC015B013A0149012801009127
:101D6000FE011091FF019C012F5F3F4F4EE06BE39E
:101D700088810E94D709898190E0982F88272A813D
:101D8000822BF501918380838B8190E0982F8827A7
:101D90002C81822BF301918380838D8190E0982F99
:101DA00088272E81822BF40191838083898590E09E
:101DB000982F88272A85822BF201918380838B8537
:101DC00090E0982F88272C85822BF70191838083C0
:101DD0008D8590E0982F88272E85822BF6019183A0
:101DE0008083DF91CF911F910F91FF90EF90DF9053
:101DF000CF90BF90AF909F908F907F906F905F90AB
:101E00004F9008950F931F93CF93DF93EC010091B0
:101E1000FE011091FF019C012F5F3F4F42E061E402
:101E200088810E94D709898190E0982F88272A818C
:101E3000822BDF91CF911F910F910895262F46E0BD
:101E40006BE6FC0180810C94CB0A0F93062F23E0F4
:101E500042E06BE6FC0180810E94FE0A0F9108952A
:101E6000CF93DF93EC0161E00E94250F60E0CE018B
:101E70000E94840E60E0CE010E948F0E60E0CE01D1
:101E8000DF91CF910C941E0FEF92FF920F931F934F
:101E9000CF93DF93EC01E090FE01F090FF018C0105
:101EA0000F5F1F4F26E046E065E788810E948E0A9B
:101EB0008981DF91CF911F910F91FF90EF9008954D
:101EC0000E94440F91E0843309F090E0892F089537
:101ED0001F920F920FB60F9211242F933F938F935F
:101EE0009F93AF93BF938091ED039091EE03A091E8
:101EF000EF03B091F0033091EC0326E0230F2D3770
:101F000020F40296A11DB11D05C029E8230F0396F8
:101F1000A11DB11D2093EC038093ED039093EE037C
:101F2000A093EF03B093F0038091F1039091F2033B
:101F3000A091F303B091F4030196A11DB11D80930C
:101F4000F1039093F203A093F303B093F403BF91D2
:101F5000AF919F918F913F912F910F900FBE0F9056
:101F60001F9018952FB7F8946091ED037091EE03D0
:101F70008091EF039091F0032FBF08953FB7F8943D
:101F80008091F1039091F203A091F303B091F403D7
:101F900026B5A89B05C02F3F19F00196A11DB11DC4
:101FA0003FBF6627782F892F9A2F620F711D811DE1
:101FB000911D43E0660F771F881F991F4A95D1F73F
:101FC00008958330910528F0880F991F0497019791
:101FD000F1F70895789484B5826084BD84B58160FA
:101FE00084BD85B5826085BD85B5816085BDEEE621
:101FF000F0E0808181608083E1E8F0E01082808100
:1020000082608083808181608083E0E8F0E080816D
:1020100081608083E1EBF0E0808184608083E0EB8D
:10202000F0E0808181608083EAE7F0E08081846075
:10203000808380818260808380818E7F80838081A5
:10204000806880831092C10008958E3008F08E5011
:1020500087702091000290E4299F90011124822B27
:1020600080937C0080917A00806480937A008091D4
:102070007A0086FDFCCF809178002091790090E075
:10208000922B0895833081F028F4813099F08230CA
:10209000A1F008958730A9F08830B9F08430D1F4E8
:1020A000809180008F7D03C0809180008F77809326
:1020B0008000089584B58F7702C084B58F7D84BD7C
:1020C00008958091B0008F7703C08091B0008F7D1C
:1020D0008093B0000895CF93DF9390E0FC01E25726
:1020E000FF4F2491FC01EE55FF4F8491882349F165
:1020F00090E0880F991FFC01E653FF4FA591B49122
:1021000080549F4FFC01C591D4919FB7611108C0C5
:10211000F8948C91209582238C93888182230AC025
:10212000623051F4F8948C91322F309583238C9344
:102130008881822B888304C0F8948C91822B8C93A5
:102140009FBFDF91CF9108950F931F93CF93DF939C
:102150001F92CDB7DEB7282F30E0F901E658FF4FC8
:102160008491F901E257FF4F1491F901EE55FF4FA9
:1021700004910023C9F0882321F069830E94421052
:102180006981E02FF0E0EE0FFF1FE054FF4FA591B3
:10219000B4919FB7F8948C91611103C0109581237D
:1021A00001C0812B8C939FBF0F90DF91CF911F9126
:1021B0000F9108950F931F93762F90E0FC01E25743
:1021C000FF4F6491FC01EE55FF4FE4917111762FA2
:1021D000F0E0EE0FFF1FEA54FF4F859194918901C3
:1021E0009A01B3E0000F111F221F331FBA95D1F7D8
:1021F00044E036952795179507954A95D1F7472FCF
:102200000E949F00611571058105910599F06F5F2E
:102210007F4F8F4F9F4F24E0660F771F881F991FB6
:102220002A95D1F733E096958795779567953A95F6
:10223000D1F703C060E070E0CB011F910F910895CA
:10224000FC01818D228D90E0805C9F4F821B910963
:102250008F7399270895FC01918D828D981731F025
:10226000828DE80FF11D858D90E008958FEF9FEF2F
:102270000895FC01918D828D981761F0828DDF01A8
:10228000A80FB11D5D968C91928D9F5F9F73928F69
:1022900090E008958FEF9FEF089587EB92E1892BEF
:1022A00049F080E090E0892B29F00E94B71281115B
:1022B0000C9400000895FC01848DDF01A80FB11D6E
:1022C000A35ABF4F2C91848D90E001968F7399276C
:1022D000848FA689B7892C93A089B1898C91806459
:1022E0008C93938D848D981306C00288F389E02D1A
:1022F00080818F7D80830895CF93DF93EC01888D5B
:102300008823C9F0EA89FB89808185FD05C0A889F9
:10231000B9898C9186FD0FC00FB607FCF5CF80817F
:1023200085FFF2CFA889B9898C9185FFEDCFCE01C9
:102330000E945B11E7CFDF91CF910895CF92DF929A
:10234000FF920F931F93CF93DF931F92CDB7DEB70A
:102350006C0181E0D60158968C9358975B969C91BE
:102360005B975C968C915C97981307C05096ED91A3
:10237000FC915197808185FD2EC0F601038D10E000
:102380000F5F1F4F0F731127F02EF601848DF81287
:1023900011C00FB607FCF9CFD6015096ED91FC9114
:1023A0005197808185FFF1CFC60169830E945B113F
:1023B0006981EBCF838DE80FF11DE35AFF4F6083F6
:1023C000D6015B960C935B975296ED91FC915397D7
:1023D000808180620CC0D6015696ED91FC91579792
:1023E00060835096ED91FC91519780818064808349
:1023F00081E090E00F90DF91CF911F910F91FF90BE
:10240000DF90CF900895BF92CF92DF92EF92FF922C
:10241000CF93DF93EC016A017B01B22E60E874E890
:102420008EE190E0A70196010E94E3172150310947
:10243000410951095695479537952795E889F989B6
:1024400082E08083211580E1380798F0E889F989D6
:10245000108260E472E48FE090E0A70196010E9490
:10246000E317215031094109510956954795379590
:102470002795EC85FD853083EE85FF852083188EBA
:10248000EC89FD89B082EA89FB8980818061808343
:10249000EA89FB89808188608083EA89FB89808161
:1024A00080688083EA89FB8980818F7D8083DF91CA
:1024B000CF91FF90EF90DF90CF90BF9008951F9243
:1024C0000F920FB60F9211242F938F939F93EF9338
:1024D000FF93E0910504F09106048081E0910B04E4
:1024E000F0910C0482FD12C0908180910E048F5FE8
:1024F0008F7320910F04821751F0E0910E04F0E0E9
:10250000EB50FC4F958F80930E0401C08081FF91AA
:10251000EF919F918F912F910F900FBE0F901F9071
:1025200018951F920F920FB60F9211242F933F937D
:102530004F935F936F937F938F939F93AF93BF93CB
:10254000EF93FF9385EF93E00E945B11FF91EF9172
:10255000BF91AF919F918F917F916F915F914F91BB
:102560003F912F910F900FBE0F901F90189585EF00
:1025700093E00E94201121E0892B09F420E0822FB2
:1025800008951092F8031092F70388EE93E0A0E00C
:10259000B0E08093F9039093FA03A093FB03B09308
:1025A000FC038AE692E09093F6038093F50385ECB2
:1025B00090E0909302048093010484EC90E0909367
:1025C00004048093030480EC90E0909306048093CD
:1025D000050481EC90E0909308048093070482EC5A
:1025E00090E090930A048093090486EC90E0909325
:1025F0000C0480930B0410920E0410920F0410929E
:102600001004109211040895CF92DF92EF92FF927E
:102610000F931F93CF93DF937C016A01EB0100E0DE
:1026200010E00C151D0571F06991D701ED91FC9139
:102630000190F081E02DC7010995892B19F00F5FFA
:102640001F4FEFCFC801DF91CF911F910F91FF90E6
:10265000EF90DF90CF9008956115710581F0DB0157
:102660000D900020E9F7AD0141505109461B570B71
:10267000DC01ED91FC910280F381E02D099480E072
:1026800090E008950C942C133F924F925F926F92BA
:102690007F928F929F92AF92BF92CF92DF92EF92F2
:1026A000FF920F931F93CF93DF9300D000D0CDB74D
:1026B000DEB78B0129013A0190910102981721F0B0
:1026C0009F3F09F0DAC104C0E4EDF0E0349081C02E
:1026D00080930102E4EDF0E0E491EF3F09F4CDC115
:1026E000E13031F1E23009F44BC0E11171C014BCAA
:1026F00015BC94B5926094BD95B5916095BD282F99
:1027000030E0F901EE55FF4FE491F0E0EE0FFF1FCE
:10271000E054FF4F459154915093A2044093A1047B
:10272000F901E257FF4F24912093A004312C53C0AC
:102730001092800010928100909181009860909397
:10274000810090918100916090938100282F30E06A
:10275000F901EE55FF4FE491F0E0EE0FFF1FE0545A
:10276000FF4F4591549150939B0440939A04F90173
:10277000E257FF4F249120939904332433942BC0C4
:102780001092B0001092B1009091B00092609093BE
:10279000B0009091B10091609093B100282F30E08B
:1027A000F901EE55FF4FE491F0E0EE0FFF1FE0540A
:1027B000FF4F459154915093940440939304F90131
:1027C000E257FF4F24912093920452E0352E03C02C
:1027D0003E2E37FC52C161E00E946B104801A12CD3
:1027E000B12C832D8D7F09F0C7C060E079E08DE3C7
:1027F00090E0A50194010E94051829833A834B8338
:102800005C8369017A0181E0C81AD108E108F10806
:102810009FEFC916D104E104F10409F008F49AC04D
:1028200060E271EA87E090E0A50194010E9405183A
:1028300069017A01E1E0CE1AD108E108F108F2E07D
:102840003F1219C08FEFC816D104E104F10409F05A
:1028500008F48AC068E478EE81E090E0A501940174
:102860000E94051869017A0191E0C91AD108E108AE
:10287000F10883E001C082E0EFEFCE16D104E1045D
:10288000F10409F008F467C064E274EF80E090E0BE
:10289000A50194010E94051869017A01F1E0CF1A9F
:1028A000D108E108F1083320E1F082E038121BC0C2
:1028B0009FEFC916D104E104F10409F008F4DBC06C
:1028C00062E17AE780E090E0A50194010E9405189A
:1028D00069017A01E1E0CE1AD108E108F10885E04A
:1028E00003C083E001C084E0FFEFCF16D104E10410
:1028F000F10489F180F169E07DE380E090E0A501D9
:1029000094010E94051869017A0181E0C81AD10872
:10291000E108F108311002C084E001C086E09FEFB9
:10292000C916D104E104F104B1F0A8F0C980DA803D
:10293000EB80FC809AE0F594E794D794C7949A953D
:10294000D1F7E1E0CE1AD108E108F108332031F0E7
:1029500087E00BC081E0332011F007C085E095B51A
:10296000987F982B95BD38C082E09091B100987FF8
:10297000982B9093B10030C060E079E08DE390E057
:10298000A50194010E94051869017A01F1E0CF1AAE
:10299000D108E108F108C114D10481E0E806F1048E
:1029A00088F064E274EF80E090E0A50194010E9459
:1029B000051869017A0191E0C91AD108E108F10806
:1029C00093E001C091E0E1E03E1206C080918100F9
:1029D000887F892B80938100411451046104710424
:1029E00071F0D801AA0FBB1FA30192010E942A18FF
:1029F00028EE33E040E050E00E94E31703C02FEFE1
:102A00003FEFA901F1E03F16A1F082E0381619F17D
:102A1000311033C0C7BC2093A3043093A404409367
:102A2000A5045093A60480916E00826080936E008E
:102A300024C0D0928900C092880020939C043093D7
:102A40009D0440939E0450939F0480916F00826088
:102A500080936F0012C0C092B3002093950430930E
:102A6000960440939704509398048091700082607C
:102A70008093700002C084E078CF0F900F900F9089
:102A80000F90DF91CF911F910F91FF90EF90DF900A
:102A9000CF90BF90AF909F908F907F906F905F90FE
:102AA0004F903F900895813039F018F0823051F006
:102AB000089510926E00089580916F008D7F80932D
:102AC0006F000895809170008D7F8093700081E089
:102AD0008093B0008091B100887F84608093B100C2
:102AE0001092B3000895CF93C82F809101028C13E8
:102AF00007C0E4EDF0E084919FEF9093010201C0E4
:102B00008FEF0E94531560E08C2FCF910C94A4108E
:102B10001F920F920FB60F9211242F933F934F9352
:102B20005F936F937F938F939F93AF93BF93EF9335
:102B3000FF938091950490919604A0919704B09191
:102B40009804892B8A2B8B2B51F190919204E09160
:102B50009304F09194048081892780838091950467
:102B600090919604A0919704B091980418161906B4
:102B70001A061B06C4F48091950490919604A091C6
:102B80009704B09198040197A109B1098093950425
:102B900090939604A0939704B093980404C08091F6
:102BA00001020E947315FF91EF91BF91AF919F9128
:102BB0008F917F916F915F914F913F912F910F90E6
:102BC0000FBE0F901F9018954F925F926F927F9259
:102BD000AF92BF92CF92DF92EF92FF920F931F932B
:102BE000CF93DF93CDB7DEB729013A01621B730B98
:102BF000840B950B29893A894B895C892A193B09F1
:102C00004C095D09298B3A8B4B8B5C8B9B01AC018A
:102C100069897A898B899C890E94C717E418F5080D
:102C200006091709A80197010E9405182A0D3B1DE6
:102C30004C1D5D1DCA01B901DF91CF911F910F910C
:102C4000FF90EF90DF90CF90BF90AF907F906F900C
:102C50005F904F90089508950E94EA0F0E942B16EE
:102C60000E94E400CDE4D1E10E948F022097E1F3BD
:102C70000E944D11F9CF5058BB27AA270ED04DC145
:102C80003ED130F043D120F031F49F3F11F41EF4D7
:102C900033C10EF4E095E7FB29C1E92F4FD180F352
:102CA000BA17620773078407950718F071F49EF549
:102CB00067C10EF4E0950B2EBA2FA02D0B01B901C0
:102CC00090010C01CA01A0011124FF27591B99F0A2
:102CD000593F50F4503E68F11A16F040A22F232FAE
:102CE000342F4427585FF3CF469537952795A795FE
:102CF000F0405395C9F77EF41F16BA0B620B730BA5
:102D0000840BBAF09150A1F0FF0FBB1F661F771F15
:102D1000881FC2F70EC0BA0F621F731F841F48F4CA
:102D2000879577956795B795F7959E3F08F0B3CF50
:102D30009395880F08F09927EE0F9795879508953A
:102D40000CD0EBC0E3D040F0DAD030F021F45F3F9C
:102D500019F0CCC0511115C1CFC0F0D098F3992310
:102D6000C9F35523B1F3951B550BBB27AA2762174F
:102D70007307840738F09F5F5F4F220F331F441F94
:102D8000AA1FA9F333D00E2E3AF0E0E830D09150CC
:102D90005040E695001CCAF729D0FE2F27D0660FB9
:102DA000771F881FBB1F261737074807AB07B0E8F8
:102DB00009F0BB0B802DBF01FF2793585F4F2AF00E
:102DC0009E3F510568F092C0DCC05F3FECF3983E37
:102DD000DCF3869577956795B795F7959F5FC9F76B
:102DE000880F911D9695879597F90895E1E0660FF4
:102DF000771F881FBB1F621773078407BA0720F06D
:102E0000621B730B840BBA0BEE1F88F7E0950895D5
:102E100004D06894B111B5C0089598D088F09F5738
:102E200090F0B92F9927B751A0F0D1F0660F771F16
:102E3000881F991F1AF0BA95C9F712C0B13081F0F6
:102E40009FD0B1E008959CC0672F782F8827B85F86
:102E500039F0B93FCCF3869577956795B395D9F757
:102E60003EF490958095709561957F4F8F4F9F4F61
:102E70000895E89409C097FB3EF49095809570956D
:102E800061957F4F8F4F9F4F9923A9F0F92F96E9B6
:102E9000BB279395F695879577956795B795F1112B
:102EA000F8CFFAF4BB0F11F460FF1BC06F5F7F4FC8
:102EB0008F4F9F4F16C0882311F096E911C07723DA
:102EC00021F09EE8872F762F05C0662371F096E8E3
:102ED000862F70E060E02AF09A95660F771F881FB2
:102EE000DAF7880F9695879597F9089597F99F6770
:102EF00080E870E060E008959FEF80EC0895002482
:102F00000A941616170618060906089500240A944E
:102F100012161306140605060895092E0394000CD4
:102F200011F4882352F0BB0F40F4BF2B11F460FF63
:102F300004C06F5F7F4F8F4F9F4F089557FD90588C
:102F4000440F551F59F05F3F71F04795880F97FB6D
:102F5000991F61F09F3F79F0879508951216130627
:102F60001406551FF2CF4695F1DF08C01616170656
:102F70001806991FF1CF869571056105089408958B
:102F8000E894BB2766277727CB0197F90895DB01E3
:102F90008F939F930E942A18BF91AF91A29F800D9B
:102FA000911DA39F900DB29F900D11240895991B20
:102FB00079E004C0991F961708F0961B881F7A9530
:102FC000C9F780950895A1E21A2EAA1BBB1BFD012B
:102FD0000DC0AA1FBB1FEE1FFF1FA217B307E407F8
:102FE000F50720F0A21BB30BE40BF50B661F771F50
:102FF000881F991F1A9469F7609570958095909530
:103000009B01AC01BD01CF010895052E97FB1EF475
:1030100000940E941C1857FD07D00E94E31707FC7C
:1030200003D04EF40C941C18509540953095219582
:103030003F4F4F4F5F4F08959095809570956195E4
:103040007F4F8F4F9F4F0895EE0FFF1F0590F49114
:10305000E02D09940E943518A59F900DB49F900D06
:10306000A49F800D911D11240895A29FB001B39FCC
:10307000C001A39F700D811D1124911DB29F700D81
:10308000811D1124911D0895CF93DF938230910506
:1030900010F482E090E0E091A904F091AA0420E00D
:1030A00030E0A0E0B0E0309739F14081518148171D
:1030B0005907B8F04817590771F482819381109726
:1030C00029F013969C938E9312972CC09093AA0488
:1030D0008093A90427C02115310531F04217530709
:1030E00018F0A901DB0101C0EF019A01BD01DF0168
:1030F0000280F381E02DD7CF21153105F9F0281B8F
:10310000390B2430310580F48A819B81611571056A
:1031100021F0FB019383828304C09093AA048093DF
:10312000A904FE01329644C0FE01E20FF31F819311
:10313000919322503109398328833AC02091A70402
:103140003091A804232B41F4209102013091030116
:103150003093A8042093A70420910001309101012D
:103160002115310541F42DB73EB74091040150912E
:103170000501241B350BE091A704F091A804E21788
:10318000F307A0F42E1B3F0B2817390778F0AC018A
:103190004E5F5F4F2417350748F04E0F5F1F509367
:1031A000A8044093A7048193919302C0E0E0F0E06B
:1031B000CF01DF91CF910895CF93DF93009709F46A
:1031C00087C0FC01329713821282C091A904D0916A
:1031D000AA04209781F420813181280F391F809122
:1031E000A7049091A8048217930779F5F093A80497
:1031F000E093A7046DC0DE0120E030E0AE17BF070A
:1032000050F412964D915C9113979D014115510513
:1032100009F1DA01F3CFB383A28340815181840F96
:10322000951F8A179B0771F48D919C911197840FBC
:10323000951F02969183808312968D919C9113978E
:10324000938382832115310529F4F093AA04E09336
:10325000A9043EC0D9011396FC93EE9312974D91A9
:103260005D91A40FB51FEA17FB0779F48081918166
:10327000840F951F0296D90111969C938E9382819B
:10328000938113969C938E931297E0E0F0E08A81ED
:103290009B81009719F0FE01EC01F9CFCE01029657
:1032A00028813981820F931F2091A7043091A804AF
:1032B0002817390769F4309729F41092AA0410925C
:1032C000A90402C013821282D093A804C093A70459
:1032D000DF91CF910895FC0188279927E8942191E7
:1032E0002032E9F3293010F02E30C8F32B3241F0B0
:1032F0002D3239F4689404C00E949019820F911DF8
:10330000219120532A30C0F31EF4909581959F4F50
:103310000895DC0101C06D9341505040E0F70895DD
:103320007AE0979F902D879F802D910D112408950D
:10333000AEE0B0E0EEE9F9E10C947B1F0D891E8947
:1033400086E08C831A8309838FEF9FE79E838D83AA
:10335000AE01475E5F4F6F89788DCE0101960E9466
:10336000D319EF81F885E00FF11F10822E96E4E06B
:103370000C94971FAEE0B0E0E0ECF9E10C947D1FF7
:1033800085E08C838B899C899A838983AE01495E11
:103390005F4F6D897E89CE0101960E94231D2E9676
:1033A000E2E00C94991FACE0B0E0E9EDF9E10C9497
:1033B0006D1F7C016B018A01FC01178216828381DB
:1033C00081FFBDC1CE0101964C01F7019381F60149
:1033D00093FD859193FF81916F01882309F4ABC11F
:1033E000853239F493FD859193FF81916F01853288
:1033F00029F4B70190E00E94C11EE7CF512C312C77
:1034000020E02032A0F48B3269F030F4803259F0A1
:10341000833269F420612CC08D3239F0803339F465
:10342000216026C02260246023C0286021C027FDBF
:1034300027C030ED380F3A3078F426FF06C0FAE0A6
:103440005F9E300D1124532E13C08AE0389E300D3C
:103450001124332E20620CC08E3221F426FD6BC164
:10346000206406C08C3611F4206802C0883641F40E
:10347000F60193FD859193FF81916F018111C1CF79
:10348000982F9F7D9554933028F40C5F1F4FFFE3D6
:10349000F9830DC0833631F0833771F0833509F03D
:1034A0005BC022C0F801808189830E5F1F4F4424D6
:1034B0004394512C540115C03801F2E06F0E711C79
:1034C000F801A080B18026FF03C0652D70E002C026
:1034D0006FEF7FEFC5012C870E94781E2C018301BE
:1034E0002C852F77222E17C03801F2E06F0E711C49
:1034F000F801A080B18026FF03C0652D70E002C0F6
:103500006FEF7FEFC5012C870E946D1E2C012C856B
:103510002068222E830123FC1BC0832D90E04816D7
:103520005906B0F4B70180E290E00E94C11E3A94BF
:10353000F4CFF50127FC859127FE81915F01B7014A
:1035400090E00E94C11E31103A94F1E04F1A5108E8
:103550004114510471F7E5C0843611F0893639F50C
:10356000F80127FF07C060817181828193810C5F20
:103570001F4F08C060817181882777FD8095982F43
:103580000E5F1F4F2F76B22E97FF09C09095809542
:10359000709561957F4F8F4F9F4F2068B22E2AE024
:1035A00030E0A4010E940C1FA82EA81844C0853743
:1035B00029F42F7EB22E2AE030E025C0F22FF97FC9
:1035C000BF2E8F36C1F018F4883579F0B4C080373B
:1035D00019F0883721F0AFC02F2F2061B22EB4FE32
:1035E0000DC08B2D8460B82E09C024FF0AC09F2F08
:1035F0009660B92E06C028E030E005C020E130E03A
:1036000002C020E132E0F801B7FE07C0608171819D
:10361000828193810C5F1F4F06C06081718180E0C1
:1036200090E00E5F1F4FA4010E940C1FA82EA81847
:10363000FB2DFF77BF2EB6FE0BC02B2D2E7FA514C2
:1036400050F4B4FE0AC0B2FC08C02B2D2E7E05C07B
:103650007A2C2B2D03C07A2C01C0752C24FF0DC0B1
:10366000FE01EA0DF11D8081803311F4297E09C02D
:1036700022FF06C07394739404C0822F867809F0E9
:10368000739423FD13C020FF06C05A2C731418F442
:10369000530C5718732C731468F4B70180E290E050
:1036A0002C870E94C11E73942C85F5CF731410F4DF
:1036B000371801C0312C24FF12C0B70180E390E01D
:1036C0002C870E94C11E2C8522FF17C021FF03C03A
:1036D00088E590E002C088E790E0B7010CC0822F37
:1036E000867859F021FD02C080E201C08BE227FDFF
:1036F0008DE2B70190E00E94C11EA51438F4B70115
:1037000080E390E00E94C11E5A94F7CFAA94F4017E
:10371000EA0DF11D8081B70190E00E94C11EA11049
:10372000F5CF332009F451CEB70180E290E00E943A
:10373000C11E3A94F6CFF7018681978102C08FEFC0
:103740009FEF2C96E2E10C94891F20FD09C0FC013B
:1037500023FD05C022FF02C073836283518340832F
:10376000089544FD10C046FD10C0DB01FC01AA0F06
:10377000BB1FEE1FFF1F1094D1F76A0F7B1F8E1F18
:103780009F1F31E003C033E001C034E0660F771FB4
:10379000881F991F3150D1F7620F711D811D911D36
:1037A00008950F931F93CF93DF938C01C8010E945C
:1037B000831EEC0197FD08C00E945A1E892BB1F7A9
:1037C000B801CE010E94F31ECE01DF91CF911F916F
:1037D0000F9108958F929F92AF92CF92DF92EF92C6
:1037E000FF920F931F93CF93DF93EC01A62E4A0114
:1037F000022F0E94831EAC0155274B32510521F048
:103800004D32510551F40068AA9411F480E067C06C
:10381000CE010E94831E97FDF9CF102F1D7F302F00
:10382000307301F58033F1F4FF24FA94FA0C09F4B3
:1038300042C0CE010E94831E97FD3DC0382F3F7DC0
:10384000383551F41264AA94AA94A9F1CE010E94C9
:10385000831E97FF07C02FC006FF02C0126001C081
:103860001261AF2CC12CD12C760120ED280F28300D
:1038700080F014FF04C0BE010E94F31E19C02A305C
:1038800040F016FFF8CF2F7D3FEE320F363098F71D
:103890002750412FC701B6010E94B11B6B017C016B
:1038A0001260AA9459F0CE010E94831E97FFDDCFCB
:1038B00011FD04C0ABCFC12CD12C760117FF08C07D
:1038C000F094E094D094C094C11CD11CE11CF11C74
:1038D000212FB701A601C4010E94A51B81E0DF9141
:1038E000CF911F910F91FF90EF90DF90CF90AF900D
:1038F0009F908F900895A1E2B0E0E1E8FCE10C9484
:10390000721F5C017A018E010F5F1F4F680180E218
:10391000D8011D928A95E9F7F501738040E050E0E7
:10392000812CB0E0912C81E090E0F90173FCA5912D
:1039300073FEA1918F017A2F9F01A11103C080E036
:1039400090E07DC0AE3519F44115510559F1E92DCE
:10395000F0E0E417F5073CF4AD3569F1AD3219F448
:10396000BB2319F103C0B11101C08A2EE72FE695E0
:10397000E695E69586010E0F111DF801A72FA77099
:103980008C0102C0000F111FAA95E2F7D801B08187
:10399000BA2BB083781559F0781510F47F5FE6CF15
:1039A0007150E4CF9924939403C0B1E001C0B0E01A
:1039B0004F5F5F4FBACFBB2319F08E8180628E8339
:1039C000911003C09924939415C0F601CE018196FD
:1039D000208120952193E817F907D1F7F3CFE1145F
:1039E000F10429F0D7018C93F70131967F016150E2
:1039F00001F1912CC50169A30E94831E69A197FD65
:103A000016C0282F269526952695F601E20FF11D62
:103A1000208130E0AC014770552702C035952795CD
:103A20004A95E2F720FDDBCFB5010E94F31E91100D
:103A300086CFE114F10411F0D7011C92C801A196C0
:103A4000EDE00C948E1F4F925F927F928F929F9227
:103A5000AF92BF92CF92DF92EF92FF920F931F939C
:103A6000CF93DF931F92CDB7DEB78C012B017A0184
:103A7000FC0117821682A12CF801D380F201D3FC3D
:103A80008591D3FE8191382F2F01882309F4FCC042
:103A900090E039830E945A1E3981892B21F0C80198
:103AA0000E94D11BE9CF353241F4F201D3FC3591AC
:103AB000D3FE31912F01353269F4C80139830E9458
:103AC000831E398197FDDEC03817B1F2B8010E941C
:103AD000F31EDAC03A3241F4D3FC3591D3FE319172
:103AE0002F01BB24B39401C0B12C712C20ED230F06
:103AF0002A3090F4FB2DF260BF2E672D70E080E03D
:103B000090E040E20E94B11B762EF201D3FC359189
:103B1000D3FE31912F01EACFB1FE03C0711003C073
:103B2000B3C077247A94383619F03C3661F014C06B
:103B3000F201D3FC3591D3FE31912F01383661F477
:103B4000FB2DF860BF2E8B2D8460B82EF201D3FCC4
:103B50003591D3FE31912F01332309F495C0632FA2
:103B600070E085ED90E039830E94621E3981892BD7
:103B700009F48AC0B0FC07C0F701C080D180C7013A
:103B800002967C0102C0C12CD12C3E3651F4F801C2
:103B90004681578160E070E02B2DC6010E94A51B75
:103BA0006BCF3336A1F4B1FC02C077247394C80103
:103BB0000E94831E97FD66C0C114D10429F0F6014E
:103BC0008083C60101966C017A9489F757C03B3512
:103BD00059F49201A601672DC8010E947B1C2C019B
:103BE000009709F04BC045C0C80139830E94D11B22
:103BF000398197FD47C03F3669F128F4343631F1F9
:103C0000393679F12BC0333769F03537F9F026C0F2
:103C1000C114D10429F0F6018082C60101966C011D
:103C20007A9471F0C8010E94831E4C0197FD08C070
:103C30000E945A1E892B61F3B801C4010E94F31E31
:103C4000C114D104D9F0F601108218C0FB2DF06226
:103C5000BF2E07C08B2D8061B82E03C09B2D9064B2
:103C6000B92E2B2DA601672DC8010E94EA1B8111D8
:103C700005C0F8018381807329F406C0B0FCFCCE36
:103C8000A394FACEAA2019F08A2D90E002C08FEFFB
:103C90009FEF0F90DF91CF911F910F91FF90EF90C9
:103CA000DF90CF90BF90AF909F908F907F905F906C
:103CB0004F90089591110EC1803219F089508550AE
:103CC000D0F70895FC010590061621F00020D9F7E1
:103CD000C00108953197CF010895FC01059061500E
:103CE00070400110D8F7809590958E0F9F1F089512
:103CF000FC016150704001900110D8F780959095BB
:103D00008E0F9F1F0895CF93DF93EC012B8120FF2F
:103D100033C026FF0AC02F7B2B838E819F810196A3
:103D20009F838E838A8190E029C022FF0FC0E881A3
:103D3000F9818081992787FD9095009719F4206279
:103D40002B831AC03196F983E8830EC0EA85FB8580
:103D5000099597FF09C02B81019611F480E101C0FC
:103D600080E2822B8B8308C02E813F812F5F3F4FE3
:103D70003F832E83992702C08FEF9FEFDF91CF9172
:103D800008950F931F93CF93DF93182F092FEB0103
:103D90008B8181FD03C08FEF9FEF20C082FF10C099
:103DA0004E815F812C813D81421753077CF4E8816D
:103DB000F9819F012F5F3F4F39832883108306C00D
:103DC000E885F985812F0995892B29F72E813F8177
:103DD0002F5F3F4F3F832E83812F902FDF91CF9115
:103DE0001F910F910895FB01238120FF12C026FD32
:103DF00010C08F3F3FEF930761F082832F7D2064D7
:103E000023832681378121503109378326839927DF
:103E100008958FEF9FEF0895FA01AA27283051F1F6
:103E2000203181F1E8946F936E7F6E5F7F4F8F4FEB
:103E30009F4FAF4FB1E03ED0B4E03CD0670F781F4A
:103E4000891F9A1FA11D680F791F8A1F911DA11D2F
:103E50006A0F711D811D911DA11D20D009F4689468
:103E60003F912AE0269F11243019305D3193DEF610
:103E7000CF010895462F4770405D4193B3E00FD0C6
:103E8000C9F7F6CF462F4F70405D4A3318F0495DB1
:103E900031FD4052419302D0A9F7EACFB4E0A69594
:103EA0009795879577956795BA95C9F700976105B6
:103EB000710508959B01AC010A2E0694579547950C
:103EC00037952795BA95C9F7620F731F841F951F01
:103ED000A01D08959927882708952F923F924F9209
:103EE0005F926F927F928F929F92AF92BF92CF928A
:103EF000DF92EF92FF920F931F93CF93DF93CDB793
:103F0000DEB7CA1BDB0B0FB6F894DEBF0FBECDBF0A
:103F100009942A88398848885F846E847D848C84DB
:103F20009B84AA84B984C884DF80EE80FD800C81E4
:103F30001B81AA81B981CE0FD11D0FB6F894DEBFC7
:103F40000FBECDBFED01089510E0C8EED0E004C073
:103F5000FE010E9426182296CA3ED107C9F7F8949E
:023F6000FFCF91
:103F62000000AB04800001000000485454502F317F
:103F72002E312034303020426164205265717565E3
:103F820073740A436F6E6E656374696F6E3A206371
:103F92006C6F73650A436F6E74656E742D5479701D
:103FA200653A206170706C69636174696F6E2F6A23
:103FB200736F6E0A436F6E74656E742D4C656E6717
:103FC20074683A20300A4163636573732D436F6EE0
:103FD20074726F6C2D416C6C6F772D4F72696769CB
:103FE2006E3A202A0A0A00485454502F312E3120AA
:103FF200323030204F4B0A436F6E6E656374696FC7
:104002006E3A20636C6F73650A436F6E74656E74EB
:104012002D547970653A206170706C6963617469BE
:104022006F6E2F6A736F6E0A436F6E74656E742DB6
:104032004C656E6774683A2025640A416363657350
:10404200732D436F6E74726F6C2D416C6C6F772D94
:104052004F726967696E3A202A0A0A257300E803DB
:1040620001FF252A5B5E2F5D252A63255B5E2F5D9E
:10407200252A63255B5E2F5D252A63255B5E2F5D06
:10408200252A63255B5E2F5D005B25642C20256459
:104092005D00256C64002564005B25642C2025648A
:1040A2002C2025642C2025642C2025642C202564BA
:1040B2002C2025645D00000000009C0B6F0B440B5C
:1040C2004C0B5F0B6E0B000000009E1104132011BD
:0640D20039112B117C11D5
:00000001FF
