:100000000C946A000C9492000C9492000C94920050
:100010000C9492000C9492000C9492000C945F014A
:100020000C9492000C9492000C9492000C94BE06D6
:100030000C9492000C9492000C9492000C949200F8
:100040000C94EF030C9492000C94E1010C94BB010E
:100050000C9492000C9492000C9492000C949200D8
:100060000C9439040C949200000000002300260038
:10007000290000000008000201000003040700003E
:1000800000000000000000000000240027002A00FB
:10009000020102040810204080010204081020011F
:1000A000020408102000000000250028002B000496
:1000B000040404040404040202020202020303030F
:1000C0000303036364696E6F70737578585B000097
:1000D0008710771011241FBECFEFD8E0DEBFCDBF51
:1000E00026E0AEEDB3E001C01D92A331B207E1F707
:1000F00013E0A0E0B1E0E8EEFBE302C005900D9252
:10010000AE3DB107D9F710E0C9E6D0E004C02197B1
:10011000FE010E940214C836D107C9F70E94CC091B
:100120000C94E71D0C940000CF92DF92EF92FF92A7
:100130000F931F93CF93DF936C017A018B01C0E083
:10014000D0E0CE15DF0589F0D8016D918D01D60183
:10015000ED91FC910190F081E02DC6010995892B6C
:1001600011F47E0102C02196ECCFC701DF91CF913F
:100170001F910F91FF90EF90DF90CF900895909195
:100180000B03981324C0E0E9F0E0E4919FEF909313
:100190000B03E130B9F098F0E230C9F490917000AF
:1001A0009D7F9093700091E09093B0009091B1008A
:1001B000987F94609093B1001092B30008C01092A1
:1001C0006E0005C090916F009D7F90936F0060E07E
:1001D0000C94520389E095E00E94350221E0892BBE
:1001E00009F420E0822F08950E944517EF92FF92B4
:1001F0000F931F93CF93DF93EC0181E0888F9B8D4A
:100200008C8D981305C0E889F989808185FD24C00B
:10021000F62E0B8D10E00F5F1F4F0F731127E02E8E
:100220008C8DE8120CC00FB607FCFACFE889F9896B
:10023000808185FFF5CFCE010E940803F1CF8B8D21
:10024000FE01E80FF11DE35AFF4FF0820B8FEA89A0
:10025000FB898081806207C0EE89FF896083E8891D
:10026000F98980818064808381E090E0DF91CF9183
:100270001F910F91FF90EF900895CF93DF93EC01C2
:10028000888D8823C9F0EA89FB89808185FD05C0B6
:10029000A889B9898C9186FD0FC00FB607FCF5CFF0
:1002A000808185FFF2CFA889B9898C9185FFEDCF38
:1002B000CE010E940803E7CFDF91CF9108951F92EE
:1002C0000F920FB60F9211242F933F934F935F938A
:1002D0006F937F938F939F93AF93BF93EF93FF930E
:1002E0008091050590910605A0910705B09108053C
:1002F000892B8A2B8B2B51F180910205E09103050C
:10030000F091040590818927808380910505909163
:100310000605A0910705B0910805181619061A06DA
:100320001B06C4F48091050590910605A091070570
:10033000B09108050197A109B10980930505909333
:100340000605A0930705B093080504C080910B0330
:100350000E94BF00FF91EF91BF91AF919F918F914C
:100360007F916F915F914F913F912F910F900FBEB1
:100370000F901F9018951F920F920FB60F92112495
:100380002F933F934F935F936F937F938F939F939D
:10039000AF93BF93EF93FF9389E095E00E9408032A
:1003A000FF91EF91BF91AF919F918F917F916F914D
:1003B0005F914F913F912F910F900FBE0F901F9023
:1003C00018951F920F920FB60F9211242F938F93AF
:1003D0009F93EF93FF93E0911905F0911A058081A7
:1003E000E0911F05F091200582FD12C0908180915F
:1003F00022058F5F8F7320912305821751F0E091C2
:100400002205F0E0E75FFA4F958F8093220501C047
:100410008081FF91EF919F918F912F910F900FBE4F
:100420000F901F901895FC01918D828D981761F0A7
:10043000828DDF01A80FB11D5D968C91928D9F5F1B
:100440009F73928F90E008958FEF9FEF0895FC01C6
:10045000918D828D981731F0828DE80FF11D858D79
:1004600090E008958FEF9FEF0895FC01918D228D0C
:10047000892F90E0805C9F4F821B91098F73992791
:10048000089580E090E0892B29F00E94EA00811114
:100490000C940000089585ED8093BC008091BC0011
:1004A00084FDFCCF1092DD04089540918904262F2D
:1004B00030E0240F311D21323105DCF42091DD04C0
:1004C0002430C9F4FC0180E090E0861758F43091A4
:1004D00089042191DC01A959BB4FA30FB11D2C93B5
:1004E0000196F3CF80918904680F6093890480E0BE
:1004F000089581E0089582E008950895E091DF0372
:100500008091DE03E81730F4F0E0E95BFB4F808177
:1005100090E008958FEF9FEF08959091DF03809111
:10052000DE03981750F4E92FF0E0E95BFB4F2081E0
:1005300030E09F5F9093DF0302C02FEF3FEFC901D0
:1005400008958091DE0390E02091DF03821B9109E2
:100550000895CF92DF92EF92FF920F931F93CF9364
:10056000DF937C01262F972F8A018091DE04882358
:1005700091F0C62FD72F6E01C40ED51ECC15DD0508
:1005800071F06991D701ED91FC910190F081E02D1E
:10059000C7010995F3CF642F822F0E945502C8012D
:1005A000DF91CF911F910F91FF90EF90DF90CF904F
:1005B0000895CF93DF931F92CDB7DEB76983209163
:1005C000DE042223D1F020910105203240F021E009
:1005D00030E0FC013383228380E090E015C08091FD
:1005E000DF04E82FF0E0E052FB4F998190838F5FAA
:1005F0008093DF048093010505C061E0CE01019680
:100600000E94550281E090E00F90DF91CF91089514
:10061000FC01848DDF01A80FB11DA35ABF4F2C919F
:10062000848D90E001968F739927848FA689B7896E
:100630002C93A089B1898C9180648C93938D848D47
:10064000981306C00288F389E02D80818F7D808316
:100650000895833081F028F4813099F08230A1F040
:1006600008958730A9F08830B9F08430D1F48091B2
:1006700080008F7D03C0809180008F778093800001
:10068000089584B58F7702C084B58F7D84BD0895A9
:100690008091B0008F7703C08091B0008F7D8093F0
:1006A000B00008951F93CF93DF93282F30E0F90116
:1006B000EE58FF4F8491F901EF56FF4FD491F901A5
:1006C000E155FF4FC491CC23C9F0162F81110E9430
:1006D0002903EC2FF0E0EE0FFF1FEB55FF4FA59124
:1006E000B4918FB7F894111105C09C91ED2FE0954E
:1006F000E92302C0EC91ED2BEC938FBFDF91CF91FA
:100700001F910895CF93DF9390E0FC01EF56FF4FC8
:100710002491FC01E155FF4F8491882361F190E021
:10072000880F991FFC01EA57FF4FC591D491FC0136
:10073000EB55FF4FA591B491611109C09FB7F89493
:100740008881209582238883EC912E230BC0623010
:1007500061F49FB7F8943881822F80958323888332
:10076000EC912E2B2C939FBF06C08FB7F894E88195
:100770002E2B28838FBFDF91CF9108953FB7F89438
:100780008091B3049091B404A091B504B091B604E3
:1007900026B5A89B05C02F3F19F00196A11DB11DDC
:1007A0003FBFBA2FA92F982F8827820F911DA11D17
:1007B000B11DBC01CD0143E0660F771F881F991F53
:1007C0004A95D1F708952FB7F8946091AF047091CE
:1007D000B0048091B1049091B2042FBF08951F928C
:1007E0000F920FB60F9211242F933F938F939F93E5
:1007F000AF93BF938091AF049091B004A091B104E6
:10080000B091B2043091AE0426E0230F2D3720F4CE
:100810000296A11DB11D05C029E8230F0396A11D55
:10082000B11D2093AE048093AF049093B004A093C5
:10083000B104B093B2048091B3049091B404A09138
:10084000B504B091B6040196A11DB11D8093B30407
:100850009093B404A093B504B093B604BF91AF9144
:100860009F918F913F912F910F900FBE0F901F90EE
:1008700018951F920F920FB60F9211242F933F934A
:100880004F935F936F937F938F939F93AF93BF9398
:10089000EF93FF938091B900887F803609F49CC064
:1008A00068F5883209F45BC090F4803109F454C0D3
:1008B00038F4882309F4F6C0883009F44DC0F6C036
:1008C000883109F44CC0803209F45DC0EFC0803437
:1008D00009F468C048F4803309F455C0883309F03E
:1008E000E5C08093DB04D8C0803509F44FC088355B
:1008F00009F45DC0883409F0D9C0D6C0883909F43C
:10090000C7C0A8F4883709F467C038F4883609F4FA
:1009100063C0803709F460C0C9C0883809F4B8C022
:10092000803909F45FC0803809F0C0C05BC0803BEB
:1009300009F486C038F4803A09F466C0883A09F4AC
:100940007FC0B4C0803C09F4A7C0883C09F4A4C0AF
:10095000883B09F48AC0AAC08091B80410C0909165
:10096000DA048091D904981770F5E091DA0481E0F7
:100970008E0F8093DA04F0E0E754FB4F8081809380
:10098000BB0085EC86C08093DB048EC0E091DA0466
:1009900081E08E0F8093DA048091BB00F0E0E75491
:1009A000FB4F80839091DA048091D9046EC0E0916E
:1009B000DA0481E08E0F8093DA048091BB00F0E0CE
:1009C000E754FB4F80838091DC0481116DC081E08E
:1009D0008093B70484EA61C083E08093DD041092C1
:1009E000AD04CFCF8091AD04803208F051C0E091CA
:1009F000AD0481E08E0F8093AD048091BB00F0E0E8
:100A0000E357FB4F8083BDCF85EC8093BC001092F1
:100A1000DD048091AD04803230F4E091AD04F0E06B
:100A2000E357FB4F10826091AD0470E0E0918B04BE
:100A3000F0918C048DE894E009951092AD0436C0D5
:100A400084E08093DD0410928A0410928904E0917E
:100A50008704F0918804099580918904811105C06B
:100A600081E08093890410926704E0918A0481E018
:100A70008E0F80938A04F0E0E959FB4F80818093C8
:100A8000BB0090918A0480918904981708F479CF6B
:100A900085E88093BC000AC085EC8093BC0010926E
:100AA000DD0404C01092DB040E944B02FF91EF9121
:100AB000BF91AF919F918F917F916F915F914F9176
:100AC0003F912F910F900FBE0F901F9018952F926E
:100AD0003F924F925F926F927F928F929F92AF92CE
:100AE000BF92CF92DF92EF92FF920F931F93CF931B
:100AF000DF93CDB7DEB727970FB6F894DEBF0FBEF2
:100B0000CDBFE82E6B834F8369010E94E3034B0145
:100B10005C016E2C660CF12C1E82772473945F812D
:100B2000452F50E05D834C831801412C512C4F819F
:100B3000F41608F099C07092DE04E092000510925D
:100B4000DF04109201056B8186EA95E00E94D902CC
:100B50000E947F077092DE04E09200051092DF048D
:100B6000109201058091DD048111FCCF2C813D8123
:100B70002F1931092132310514F020E230E0213201
:100B800008F020E27092DD047092DC048FEF809315
:100B9000DB041092DA04820F8093D9047092B804B7
:100BA0008091B80486298093B8048091B70481307D
:100BB00071F41092B7048091B8048093BB008091C7
:100BC000BC0083FDF8CF95EC9093BC0003C0E5EE2C
:100BD000E093BC008091DD048130E1F38091DA0480
:100BE000821710F42091DA04A9EBB4E0E7E4F4E012
:100BF0008E2F47E454E0841B821718F48D91819363
:100C0000F7CF1092DF032093DE039091DE038091F3
:100C1000DF03981719F10115110599F4A6012E812A
:100C2000420F511D27FD5A955A83498386EA95E064
:100C30000E948D02E981FA8180832E812F5F2E83AD
:100C4000E4CF0E94E303DC01CB0188199909AA09CA
:100C5000BB0982159305A405B50500F38F81813288
:100C600008F080E2F80E63CFFE8001151105D9F07F
:100C70000E94E303DC01CB0188199909AA09BB0989
:100C800020E030E080179107A207B30760F05F8192
:100C9000252F30E08F2D0F2C000C990B8217930716
:100CA00014F4FF24FA948F2D27960FB6F894DEBF24
:100CB0000FBECDBFDF91CF911F910F91FF90EF90AD
:100CC000DF90CF90BF90AF909F908F907F906F906C
:100CD0005F904F903F902F900895BF92CF92DF92F8
:100CE000EF92FF920F931F93CF93DF9300D0CDB776
:100CF000DEB7F82EE62EC42EB22ED02E08EE13E06C
:100D00009E012E5F3F4F41E00E946705882349F115
:100D10004C2D50E04B1951094F5F5F4F21E030E0FF
:100D200002C0220F331FBA94E2F721503109042E7A
:100D300001C0220F0A94EAF78D2D01C0880F4A9551
:100D4000EAF7322F30959A8193232823292B2A837F
:100D50002983AE014F5F5F4F6E2D8F2D0E94DC0700
:100D600001C080E00F900F90DF91CF911F910F9104
:100D7000FF90EF90DF90CF90BF9008951F920F9259
:100D80000FB60F9211242F933F934F935F936F935E
:100D90007F938F939F93AF93BF93EF93FF93809134
:100DA000460487FF05C010928500109284001BC086
:100DB00020914604022E000C330B8091D60590E062
:100DC0002817390784F480914604082E000C990BEB
:100DD000FC01EE0FFF1F8E0F9F1FFC01EE54FA4F18
:100DE000808186FD15C0809146048F5F8093460404
:100DF00020914604022E000C330B8091D60590E022
:100E000028173907C4F4809146048C3064F113C06C
:100E100080914604082E000C990BFC01EE0FFF1F79
:100E20008E0F9F1FFC01EE54FA4F808160E08F739C
:100E30000E945203D8CF809184009091850004963F
:100E400080329E4418F480E29EE405C080918400C4
:100E500090918500049690938900809388008FEF8D
:100E6000809346043BC0209184003091850080919E
:100E70004604082E000C990BFC01EE0FFF1F8E0F8D
:100E80009F1FFC01EE54FA4F81819281820F931FC4
:100E9000909389008093880080914604082E000C6E
:100EA000990BFC01EE0FFF1F8E0F9F1FFC01EE54EC
:100EB000FA4F808186FF12C080914604082E000CF4
:100EC000990BFC01EE0FFF1F8E0F9F1FFC01EE54CC
:100ED000FA4F808161E08F730E945203FF91EF917E
:100EE000BF91AF919F918F917F916F915F914F9142
:100EF0003F912F910F900FBE0F901F90189520914A
:100F0000010590910005213208F04AC08091DD046E
:100F10008111FCCF32E03093DD0431E03093DC040A
:100F20003FEF3093DB041092DA042093D904A0EE53
:100F3000B4E049EB54E0FA013E2F341B321718F4A9
:100F40003D913193F9CF1092B8042091B804990FD4
:100F5000922B9093B8049091B704913061F4109261
:100F6000B7049091B8049093BB009091BC0093FD9E
:100F7000F8CF95EC01C095EE9093BC009091DD0404
:100F80009230E1F39091DB049F3F79F08091DB0494
:100F9000803241F08091DB04803331F084E005C081
:100FA00081E003C082E001C083E01092DF04109270
:100FB00001051092DE040895CF93DF93EA0191E0DA
:100FC0009093DE04809300051092DF0410920105D7
:100FD00086EA95E00E94D902688186EA95E00E943F
:100FE000D9020E947F0791E0811190E0892FDF9163
:100FF000CF9108950F931F93CF93DF93CDB7DEB7B3
:1010000029970FB6F894DEBF0FBECDBF0E94BE0376
:101010000091FA051091FB052091FC053091FD052A
:10102000DC01CB01801B910BA20BB30BC297A10576
:10103000B10560F3F8948091F0059091F1059A83E1
:101040008983E091F405F091F505DF011196808127
:1010500089878091EC05E091FE05F091FF058823DA
:1010600009F4BBC01B82EB32F10509F058C09BB1FB
:1010700080910006982B98879BB1809589238F8358
:101080008F818C83898587FF02C088858C835885F2
:101090006F8149853C812B8189819A815BB9262F9B
:1010A0003BB900C046FD252F6BB900C05BB9362F98
:1010B0002BB900C045FD352F6BB900C05BB9262F99
:1010C0003BB900C044FD252F6BB900C05BB9362F7A
:1010D0002BB900C043FD352F6BB900C05BB9262F7B
:1010E0003BB900C042FD252F6BB900C05BB9362F5C
:1010F0002BB900C041FD352F6BB900C05BB9262F5D
:101100003BB900C040FD252F6BB901975BB9362F65
:101110002BB94D9147FD352F6BB901F65AC0B597E4
:1011200009F08BC095B180910006982B988795B1F6
:10113000809589238F838F818C83898587FF02C067
:1011400088858C8358856F8149853C812B81898175
:101150009A8155B9262F35B900C046FD252F65B9AE
:1011600000C055B9362F25B900C045FD352F65B9EA
:1011700000C055B9262F35B900C044FD252F65B9EB
:1011800000C055B9362F25B900C043FD352F65B9CC
:1011900000C055B9262F35B900C042FD252F65B9CD
:1011A00000C055B9362F25B900C041FD352F65B9AE
:1011B00000C055B9262F35B900C040FD252F65B9AF
:1011C000019755B9362F25B94D9147FD352F65B992
:1011D00001F649873C832B832EC0908180910006C5
:1011E000982B98879081809589238F838F818E8318
:1011F00088E08D8358856F8149853D812E81898165
:101200009A81508347FD252F2083262F3A9531F070
:10121000441F608300C000C000C0F3CF60830000A3
:1012200038E04D91019769F7F093FF05E093FE05D3
:1012300049873D832E839A83898378940E94BE03D5
:101240006093FA057093FB058093FC059093FD0570
:1012500029960FB6F894DEBF0FBECDBFDF91CF91B8
:101260001F910F910895CF92DF92EF92FF920F930B
:101270001F936C01EE24FF24FC2D072F182F292F1C
:101280003327E02F562F4091F305442361F0C49E8D
:1012900060011124FD2D049F80011124E12F649F22
:1012A00090011124532FA091F905B091F6052091DA
:1012B000F4053091F505AB1789F0C92EDD24EE2435
:1012C000FF24C9018A0F911DDC01442329F0C49E2B
:1012D000B0011124672F01C06C2D6C938091F6052D
:1012E000D901A80FB11DFC938091F705D901A80F72
:1012F000B11DEC938091F805F901E80FF11D5083C1
:101300001F910F91FF90EF90DF90CF900895CF92B3
:10131000DF92EF92FF920F931F93E82FF92F05C0F2
:10132000015011092109310961F190819623941727
:10133000B9F305C0015011092109310911F190815A
:1013400096239413F7CFC12CD12CE12CF12C0AC099
:101350008FEFC81AD80AE80AF80A0C151D052E05E1
:101360003F0579F080818623841791F36C2D7D2DC4
:101370008E2D9F2D1F910F91FF90EF90DF90CF90BA
:10138000089560E070E080E090E01F910F91FF9081
:10139000EF90DF90CF900895CF93DF93CDB7DEB776
:1013A000C358D1090FB6F894DEBF0FBECDBF7894F5
:1013B00084B5826084BD84B5816084BD85B582605A
:1013C00085BD85B5816085BD80916E00816080930B
:1013D0006E00109281008091810082608093810074
:1013E0008091810081608093810080918000816084
:1013F000809380008091B10084608093B1008091DF
:10140000B00081608093B00080917A008460809306
:101410007A0080917A00826080937A0080917A00CD
:101420008E7F80937A0080917A00806880937A0022
:101430001092C1001092E1031092E0031092220476
:101440001092210481E090E09093200480931F0487
:101450000E94E3036093E2037093E3038093E40349
:101460009093E5031092FE031092FD0361E08DE07E
:101470000E94820361E087E00E94820361E08CE0C9
:101480000E94820360E08EE00E9482038091F20558
:1014900087FD08C061E00E94820360E08091F20550
:1014A0000E94520381E08093ED058091EE059091BA
:1014B000EF05892B29F060E070E0CB010E94330931
:1014C0008091F4059091F505892B11F00E94FA079F
:1014D0001092DF031092DE031092DF0410920105D8
:1014E0001092DD0481E08093DC041092B70461E087
:1014F00082E10E94520361E083E10E9452038091E5
:10150000B9008E7F8093B9008091B9008D7F809360
:10151000B90080E28093B80085E48093BC0001E0CC
:1015200023E042E06BE68091D7050E946D0600E063
:1015300022E044E06BE18091D7050E946D0622E035
:1015400044E06CE18091D7050E946D06F090D705CC
:1015500008EE13E09E012F5F3F4F590141E06BE61B
:101560008F2D0E94670599819F7B9983CF57DF4F0D
:101570009883C158D040AE014F575F4F6BE68F2D17
:101580000E94DC07950141E065E78091D7050E9444
:101590006705882339F089818E7790E09595879546
:1015A0008093D80581E09091D805943309F080E0CC
:1015B0008093F4031092450410924404E0911905BD
:1015C000F0911A0582E08083E0911505F0911605EF
:1015D0001082E0911705F091180580E18083109248
:1015E0002105E0911D05F0911E0586E08083E091C4
:1015F0001B05F0911C05808180618083E0911B05B3
:10160000F0911C05808188608083E0911B05F0913A
:101610001C05808180688083E0911B05F0911C058A
:1016200080818F7D80831E0131E4230E311C4E01A9
:1016300041E6840E911C89E095E00E94350218165F
:1016400019060CF0C6C3809144049091450480971C
:1016500024F0109245041092440489E095E00E9421
:10166000130280934304873429F4109245041092A6
:1016700044040EC08A3061F4E0914404F0914504C2
:10168000ED5DFB4F1082109245041092440412C08D
:101690002091440430914504A9014F5F5F4F50935E
:1016A000450440934404F901ED5DFB4F80838A308B
:1016B00009F08FC383E294E020912304273409F0DA
:1016C00088C320912404253409F083C32091250484
:1016D000243509F07EC3BF92AF928E010F5D1F4F7C
:1016E0001F930F933F922F929F928F9220E833E0A7
:1016F0003F932F939F938F930E9474170FB6F89484
:10170000DEBF0FBECDBF019689F0C4010E94271D28
:101710006C01C1010E94271D7C01C8010E94271D88
:101720008C01C5010E94271D282F09C02FEF0FEF44
:101730001FEFEE24EA94FE2CCC24CA94DC2C36E075
:10174000C316D10409F478C154F553E0C516D10489
:1017500009F45EC0CCF491E0C916D10409F44FC07D
:10176000E2E0CE16D10409F025C38FE00E94440FB9
:10177000182F092F84E10E94440F9F938F930F939A
:101780001F9387EA93E04FC1F4E0CF16D10409F428
:10179000C6C025E0C216D10409F4C9C00BC339E0A4
:1017A000C316D10409F481C17CF457E0C516D104F5
:1017B00009F45EC188E0C816D10409F0FBC26E2DA1
:1017C0008DE00E9452036EC19BE0C916D10409F45A
:1017D00044C20CF437C2F6E3CF16D10409F0EAC2D2
:1017E00086ED93E00E9438100CE313E028E133E02B
:1017F000CE57DF4F39832883C258D04099C2F09228
:101800002204E09221041092200410921F044AC185
:10181000E114F10481F4E091E905F0E0CF01880FD3
:10182000991FE80FF91FEE54FA4F80818F7B808358
:101830001092FE0330C08091FE03811109C064E064
:1018400070E089EE95E00E94DC0F81E08093FE035A
:10185000C701FF0CAA0BBB0B9C01AD012C593F4FDC
:101860004F4F5F4FA4EBB0E00E946C1D28EC30E0BE
:1018700040E050E00E944D1D57FD07C0B901253BD7
:1018800031052CF064EB70E002C060E070E089EE9E
:1018900095E00E945B0F0115110581F4E091E605CA
:1018A000F0E0CF01880F991FE80FF91FEE54FA4FAF
:1018B00080818F7B80831092FD03F4C08091FD03B3
:1018C000811109C065E070E086EE95E00E94DC0FB2
:1018D00081E08093FD03C801110FAA0BBB0B9C0193
:1018E000AD012456310941095109A4EBB0E00E9431
:1018F0006C1D28E33FEF4FEF5FEF0E944D1D57FD3A
:1019000007C0B901253B31052CF064EB70E002C043
:1019100060E070E086EE95E00E945B0FC3C0A80116
:10192000110F660B770BC7010E947011BBC060E0FE
:101930008CE00E94520361E08CE00E94520380E13F
:1019400090E00197F1F760E08CE00E945203EFE92C
:10195000F0E06491EDEBF0E0E491F0E0EE0FFF1FBA
:10196000E859FF4F8591949100E211EA27E030E0B9
:10197000462F0E9487096115710581059105B1F017
:10198000DC01CB010196A11DB11D14E0880F991F48
:10199000AA1FBB1F1A95D1F7BC01CD0103E0969594
:1019A0008795779567950A95D1F703C060E070E059
:1019B000CB010E941D156093F9037093FA03809385
:1019C000FB039093FC032DEC3CEC48E652E40E94B0
:1019D00075140E94E71465367105810591054CF474
:1019E0006093F5037093F6038093F7039093F803E5
:1019F0000CC084E690E0A0E0B0E08093F503909303
:101A0000F603A093F703B093F8038091F8038F9344
:101A10008091F7038F938091F6038F938091F50364
:101A20008F9380EB93E09F938F938FEF93E09F933F
:101A30008F930E94511727C18091EE059091EF0579
:101A4000892B69F08E2D90E0A0E0B0E0DC019927B1
:101A50008827902BBC01CD01622B0E943309809115
:101A6000F4059091F505892BE9F00E94FA071AC058
:101A700085E10E94440F9F938F9384EB93E09F93A3
:101A80008F938FEF93E09F938F930E9451178FEF67
:101A900093E00E9438100F900F900F900F900F90CE
:101AA0000F9097C186ED93E0D5C08091F403882311
:101AB00009F47BC008EE13E028ED35E04EE06BE35F
:101AC0008091D7050E9467058091D80590E0982FF6
:101AD00088272091D905822B9093F3038093F203FA
:101AE0008091DA0590E0982F88272091DB05822BE2
:101AF0009093F1038093F0038091DC0590E0982FA0
:101B000088272091DD05822B9093EF038093EE03CD
:101B10008091E00590E0982F88272091E105822BA5
:101B20009093ED038093EC038091E20590E0982F71
:101B300088272091E305822B9093EB038093EA039F
:101B40008091E40590E0982F88272091E505822B6D
:101B50009093E9038093E80328ED35E042E061E4E7
:101B60008091D7050E9467056091D80570E0762FB7
:101B700066278091D905682B072E000C880B990BDE
:101B80000E941F1520E030E048E052E40E947514E6
:101B900026E636EA46EB53E40E9409140E94E71455
:101BA0007093E7036093E6031CC01092E903109260
:101BB000E8031092EB031092EA031092ED031092E7
:101BC000EC031092EF031092EE031092F1031092C7
:101BD000F0031092F3031092F2031092E7031092B5
:101BE000E6038091F2039091F3032091E7032F9392
:101BF0002091E6032F932091E9032F932091E8038E
:101C00002F932091EB032F932091EA032F932091A0
:101C1000ED032F932091EC032F939F938F932091AB
:101C2000F1032F932091F0032F939F938F9387EBD2
:101C300093E09F938F938FEF93E09F938F930E94F6
:101C4000511721C064ED73E08FEF93E00E944A17B3
:101C50008FEF93E00E943810BCC08DE791E09F9316
:101C60008F938EEC91E09F938F938AE192E09F9304
:101C70008F9387ED93E09F938F938FEF93E09F93E4
:101C80008F930E9451178FEF93E00E9438100FB688
:101C9000F894DEBF0FBECDBF9CC00E94BE03DC0126
:101CA000CB0184199509A609B709883E9340A1057F
:101CB000B10580F0F1E0CF1AD108E108F10828EE73
:101CC000420E23E0521E611C711CC114D104E104B8
:101CD000F10419F7C114D104E104F104F1F687E02D
:101CE0000E94BF00EFE7F0E08491EEE9F0E0F490AD
:101CF000ECEBF0E0E490EE2009F45AC081110E9470
:101D00002903EE2DF0E0EE0FFF1FE859FF4FA591DC
:101D1000B4918C91F82281E009F44AC061E0681B1B
:101D20008DE00E945203F3E000361F0709F451C012
:101D3000F801619171918F0180ED97E00E94DA13B3
:101D4000072E000C880B990B0E941F1520E030E035
:101D5000A9010E9409140E94E7146B01770FEE0895
:101D6000FF08B701A601CE57DF4FE881F981C258BD
:101D7000D04081919191CE57DF4FF983E883C258CB
:101D8000D0400E947011C701B6010E941F152AE9B8
:101D900039E949E95FE30E94AB150E94E7146B0142
:101DA000770FEE08FF080E94BE032B013C0192CF83
:101DB00080E0B4CFE0E0F1E001900020E9F7319756
:101DC000AF014050514060E071E089E095E00E9431
:101DD000940080911F0490912004892B09F051C038
:101DE00000912104109122040115110579F410923B
:101DF000E1031092E00321E030E0309320042093CF
:101E00001F0460E08DE00E9452033BC00E94E30388
:101E10006B017C018091E2039091E303A091E403C4
:101E2000B091E503A7019601281B390B4A0B5B0B08
:101E3000DA01C901012E000C220B330B0817190718
:101E40002A073B07F4F48091E0039091E103892B8A
:101E500039F441E050E05093E1034093E00304C0C3
:101E60001092E1031092E0036091E0038DE00E9484
:101E70005203C092E203D092E303E092E403F092B3
:101E8000E5030E944102D7CB8E3008F08E50877058
:101E9000806480937C0080917A00806480937A00D3
:101EA00080917A0086FDFCCF8091780020917900A6
:101EB00090E0922B0895CF92DF92EF92FF92CF9312
:101EC000DF93EC01603282E078070CF03DC077FDD3
:101ED00006C0653B71052CF064EB70E002C060E069
:101EE00070E0898128E830E06901C81AD10887FDCF
:101EF000D394CC0CDD1CCC0CDD1C0D2C000CEE089E
:101F0000FF088A8128E532E0281B310987FD3395D7
:101F1000220F331F220F331FC901330FAA0BBB0B34
:101F20009C01AD012C193D094E095F09DB010E949E
:101F3000771D24EB30E040E050E00E944D1DC20EC2
:101F4000D31EE41EF51EB60188818C3070F5998190
:101F500048E850E0491B510997FD5395440F551F20
:101F6000440F551F6417750784F09A8128E532E005
:101F7000291B310997FD3395220F331F220F331F81
:101F8000AB01261737070CF4A9012FB7F89490E09E
:101F900042505109FC01EE0FFF1F8E0F9F1FFC01E5
:101FA000EE54FA4F528341832FBFDF91CF91FF90C0
:101FB000EF90DF90CF9008951F93CF93DF93EC01C4
:101FC000162F88818C3008F04EC061E0812F0E946E
:101FD00082038881E82FF0E09F01220F331FE20F78
:101FE000F31FEE54FA4F1F739081907C192B1083CE
:101FF00019821A826CE00E94CE139CE0899FB00186
:10200000112440E050E09A01260F371FF901EE0F2E
:10201000FF1F2E0F3F1FF901EE54FA4F908196FDDE
:1020200016C04F5F5F4F4C30510569F781110FC0EB
:102030001092800082E080938100109285001092BF
:102040008400B19A80916F00826080936F00E88174
:10205000F0E0CF01880F991FE80FF91FEE54FA4FF7
:102060008081806480838881DF91CF911F91089562
:102070000F931F93CF93DF93CDB7DEB7D2500FB638
:10208000F894DEBF0FBECDBFFC0101900020E9F740
:102090003197E81BF90B9F938F93FF93EF9384E99C
:1020A00092E09F938F938E010F5F1F4F1F930F93AB
:1020B0000E945117F80101900020E9F73197AF0114
:1020C000401B510BB80189E095E00E9494000FB6C7
:1020D000F894DEBF0FBECDBFDE5F0FB6F894DEBF53
:1020E0000FBECDBFDF91CF911F910F9108958091C9
:1020F000F4059091F505009711F00E94AD168091BE
:10210000F20587FD03C060E00C94820308951092ED
:102110000C0510920B0588EE93E0A0E0B0E08093F0
:102120000D0590930E05A0930F05B093100524E6BE
:1021300033E030930A052093090525EC30E0309315
:1021400016052093150524EC30E0309318052093F4
:10215000170520EC30E030931A052093190521EC87
:1021600030E030931C0520931B0522EC30E03093C7
:102170001E0520931D0526EC30E0309320052093AA
:102180001F0510922205109223051092240510922B
:1021900025051092A9051092A8058093AA05909391
:1021A000AB05A093AC05B093AD0584E793E09093A5
:1021B000A7058093A6051092ED051092F3051092E5
:1021C000FA051092FB051092FC051092FD0581E0C6
:1021D0008093F9058093F6051092F70592E09093AD
:1021E000F8058093EC0583E090E09093F1058093EF
:1021F000F0050E9418169093F5058093F40500975A
:1022000059F0FC0110821182128281E090E09093DB
:10221000EF058093EE0508C01092F1051092F005CD
:102220001092EF051092EE058BE08093F2058091FD
:10223000ED05882341F061E08BE00E94820360E0BD
:102240008BE00E945203EAEBF0E0E491F0E0EE0F45
:10225000FF1FEB55FF4F859194919093FF0580935D
:10226000FE05ECE9F0E0E491E09300068091D605EC
:102270008C30A0F491E0980F9093D6058093E905F7
:1022800090E0FC01EE0FFF1F8E0F9F1FFC01EE542C
:10229000FA4F8CED95E09283818303C08FEF80939A
:1022A000E9058091D6058C30A0F491E0980F9093C9
:1022B000D6058093E60590E0FC01EE0FFF1F8E0F20
:1022C0009F1FFC01EE54FA4F8CED95E092838183C1
:1022D00003C08FEF8093E60588E68093D7050895C5
:1022E0003F924F925F926F927F928F929F92AF92A6
:1022F000BF92CF92DF92EF92FF920F931F93CF93F3
:10230000DF9300D000D0CDB7DEB720910B0327308C
:1023100021F02F3F09F02CC204C0E0E9F0E0349036
:1023200076C027E020930B03E0E9F0E0E491EF3F73
:1023300009F41EC2E13011F1E23009F443C0E111A9
:1023400065C014BC15BC24B5226024BD25B5216030
:1023500025BDE6EBF0E0E491F0E0EE0FFF1FEB555A
:10236000FF4F259134913093060620930506E8E946
:10237000F0E0E491E0930406312C4BC01092800011
:10238000109281002091810028602093810020918B
:102390008100216020938100E6EBF0E0E491F0E021
:1023A000EE0FFF1FEB55FF4F25913491309303063D
:1023B00020930206E8E9F0E0E491E093010633247B
:1023C000339427C01092B0001092B1002091B00059
:1023D00022602093B0002091B10021602093B100D1
:1023E000E6EBF0E0E491F0E0EE0FFF1FEB55FF4F5E
:1023F000259134913093040520930305E8E9F0E03A
:10240000E491E0930205B2E03B2E03C03E2E37FC80
:10241000AFC12A013B018C0161E087E00E94820389
:102420004801A12CB12C832D8D7F09F0BBC060E049
:1024300079E08DE390E0A50194010E944D1D298370
:102440003A834B835C8369017A0121E0C21AD10887
:10245000E108F1088FEFC816D104E104F10409F096
:1024600008F44CC060E271EA87E090E0A5019401B5
:102470000E944D1D69017A01E1E0CE1AD108E10800
:10248000F108F2E03F1220C02FEFC216D104E104A0
:10249000F10409F008F46AC168E478EE81E090E0A4
:1024A000A50194010E944D1D69017A0181E0C81ABD
:1024B000D108E108F108EFEFCE16D104E104F104F0
:1024C00009F0D0F583E067C0FFEFCF16D104E10437
:1024D000F104B1F0A8F064E274EF80E090E0A501AF
:1024E00094010E944D1D69017A0181E0C81AD1084A
:1024F000E108F108332009F4DFC02FC181E001C0F9
:1025000082E03320A1F047C089819A81AB81BC81F0
:102510002AE0B595A795979587952A95D1F76C01EF
:102520007D0121E0C21AD108E108F10885E095B5E6
:10253000987F892B85BD6FC064E274EF80E090E0E6
:10254000A50194010E944D1D69017A01F1E0CF1AA5
:10255000D108E108F1082FEFC216D104E104F1041B
:1025600009F008F4A7C062E17AE780E090E0A501F5
:1025700094010E944D1D69017A01E1E0CE1AD10853
:10258000E108F108FFEFCF16D104E104F10411F0E6
:1025900008F0B4C085E09091B100987F892B8093BA
:1025A000B10039C060E079E08DE390E0A5019401CD
:1025B0000E944D1D69017A0181E0C81AD108E10825
:1025C000F108C114D104E1E0EE06F10488F064E200
:1025D00074EF80E090E0A50194010E944D1D690117
:1025E0007A01F1E0CF1AD108E108F10893E001C0C7
:1025F00091E021E032120FC080918100887F892B09
:1026000080938100411451046104710449F42FEF57
:102610003FEFA9012DC0411451046104710471F010
:10262000D801AA0FBB1FA30192010E946C1D28EEC6
:1026300033E040E050E00E947F1D03C02FEF3FEFEA
:10264000A90181E03816A1F0E2E03E1619F131103F
:102650008FC0C7BC20930B0630930C0640930D0629
:1026600050930E0680916E00826080936E0080C051
:10267000D0928900C0928800209307063093080604
:102680004093090650930A0680916F008260809300
:102690006F006EC0C092B30020930505309306050D
:1026A00040930705509308058091700082608093E5
:1026B00070005EC084E06FCFFFEFCF16D104E1045D
:1026C000F104D1F0C8F069E07DE380E090E0A5017D
:1026D00094010E944D1D69017A0181E0C81AD10858
:1026E000E108F108EFEFCE16D104E104F10411F096
:1026F00008F00ACF84E01BCF83E019CF69E07DE3C7
:1027000080E090E0A50194010E944D1D69017A01CD
:1027100081E0C81AD108E108F108EFEFCE16D10424
:10272000E104F104C1F0B8F089819A81AB81BC81E8
:102730004AE0B595A795979587954A95D1F76C018D
:102740007D0121E0C21AD108E108F108332009F423
:10275000EDCE87E020CF86E0D4CEFFEFCF16D104B8
:10276000E104F10409F050F684E0CBCE82E013CF0F
:102770000F900F900F900F90DF91CF911F910F91BD
:10278000FF90EF90DF90CF90BF90AF909F908F9091
:102790007F906F905F904F903F900895991B79E0E4
:1027A00004C0991F961708F0961B881F7A95C9F7E1
:1027B0008095089597FB072E16F4009407D077FDB7
:1027C00009D00E94EE1307FC05D03EF49095819548
:1027D0009F4F0895709561957F4F0895AA1BBB1B6D
:1027E00051E107C0AA1FBB1FA617B70710F0A61B11
:1027F000B70B881F991F5A95A9F780959095BC0132
:10280000CD010895EE0FFF1F0590F491E02D09947E
:102810005058BB27AA270E9420140C9471150E94BF
:10282000631538F00E946A1520F039F49F3F19F4BF
:1028300026F40C9460150EF4E095E7FB0C945A1501
:10284000E92F0E94821558F3BA17620773078407AD
:10285000950720F079F4A6F50C94A4150EF4E095F4
:102860000B2EBA2FA02D0B01B90190010C01CA014A
:10287000A0011124FF27591B99F0593F50F4503EF5
:1028800068F11A16F040A22F232F342F4427585FE7
:10289000F3CF469537952795A795F0405395C9F7FF
:1028A0007EF41F16BA0B620B730B840BBAF09150B7
:1028B000A1F0FF0FBB1F661F771F881FC2F70EC056
:1028C000BA0F621F731F841F48F487957795679529
:1028D000B795F7959E3F08F0B0CF9395880F08F015
:1028E0009927EE0F9795879508950E9489140C9467
:1028F00071150E946A1558F00E94631540F029F482
:102900005F3F29F00C945A1551110C94A5150C94A5
:1029100060150E94821568F39923B1F3552391F352
:10292000951B550BBB27AA2762177307840738F03E
:102930009F5F5F4F220F331F441FAA1FA9F335D09B
:102940000E2E3AF0E0E832D091505040E695001C4F
:10295000CAF72BD0FE2F29D0660F771F881FBB1F09
:10296000261737074807AB07B0E809F0BB0B802DE7
:10297000BF01FF2793585F4F3AF09E3F510578F013
:102980000C945A150C94A5155F3FE4F3983ED4F3CC
:10299000869577956795B795F7959F5FC9F7880FE7
:1029A000911D9695879597F90895E1E0660F771F39
:1029B000881FBB1F621773078407BA0720F0621BCA
:1029C000730B840BBA0BEE1F88F7E09508950E94F5
:1029D000EE146894B1110C94A51508950E948A15FF
:1029E00088F09F5798F0B92F9927B751B0F0E1F0D0
:1029F000660F771F881F991F1AF0BA95C9F714C080
:102A0000B13091F00E94A415B1E008950C94A41582
:102A1000672F782F8827B85F39F0B93FCCF38695B8
:102A200077956795B395D9F73EF490958095709515
:102A300061957F4F8F4F9F4F0895E89409C097FB92
:102A40003EF490958095709561957F4F8F4F9F4F85
:102A50009923A9F0F92F96E9BB279395F6958795C9
:102A600077956795B795F111F8CFFAF4BB0F11F48C
:102A700060FF1BC06F5F7F4F8F4F9F4F16C0882333
:102A800011F096E911C0772321F09EE8872F762F69
:102A900005C0662371F096E8862F70E060E02AF0AA
:102AA0009A95660F771F881FDAF7880F9695879596
:102AB00097F9089597F99F6780E870E060E00895BE
:102AC0009FEF80EC089500240A9416161706180646
:102AD0000906089500240A94121613061406050622
:102AE0000895092E0394000C11F4882352F0BB0FB3
:102AF00040F4BF2B11F460FF04C06F5F7F4F8F4F16
:102B00009F4F089557FD9058440F551F59F05F3F50
:102B100071F04795880F97FB991F61F09F3F79F0FF
:102B200087950895121613061406551FF2CF469581
:102B3000F1DF08C0161617061806991FF1CF869503
:102B40007105610508940895E894BB2766277727E7
:102B5000CB0197F908950E94BE150C9471150E943F
:102B6000631538F00E946A1520F0952311F00C943B
:102B70005A150C94601511240C94A5150E94821509
:102B800070F3959FC1F3950F50E0551F629FF001C0
:102B9000729FBB27F00DB11D639FAA27F00DB11DD9
:102BA000AA1F649F6627B00DA11D661F829F222762
:102BB000B00DA11D621F739FB00DA11D621F839FE9
:102BC000A00D611D221F749F3327A00D611D231FBF
:102BD000849F600D211D822F762F6A2F11249F570D
:102BE00050409AF0F1F088234AF0EE0FFF1FBB1F10
:102BF000661F771F881F91505040A9F79E3F5105CF
:102C000080F00C945A150C94A5155F3FE4F3983EA0
:102C1000D4F3869577956795B795F795E7959F5F78
:102C2000C1F7FE2B880F911D9695879597F908950A
:102C3000CF93DF938230910510F482E090E0E09131
:102C40001106F091120620E030E0C0E0D0E03097AD
:102C500011F14081518148175907C0F048175907B1
:102C600061F482819381209719F09B838A832BC022
:102C7000909312068093110626C02115310519F094
:102C80004217530718F49A01BE01DF01EF010280D9
:102C9000F381E02DDCCF2115310509F1281B390B1B
:102CA0002430310590F412968D919C911397611503
:102CB000710521F0FB019383828304C09093120677
:102CC00080931106FD01329644C0FD01E20FF31F0F
:102CD00081939193225031092D933C933AC02091D6
:102CE0000F0630911006232B41F420910E033091F2
:102CF0000F033093100620930F0620910C033091A0
:102D00000D032115310541F42DB73EB74091100355
:102D100050911103241B350BE0910F06F091100622
:102D2000E217F307A0F42E1B3F0B2817390778F0A2
:102D3000AC014E5F5F4F2417350748F04E0F5F1F01
:102D40005093100640930F068193919302C0E0E0E8
:102D5000F0E0CF01DF91CF9108950F931F93CF93B0
:102D6000DF93009709F48CC0FC0132971382128222
:102D700000911106109112060115110581F42081B0
:102D80003181820F931F20910F0630911006281772
:102D9000390779F5F0931006E0930F0671C0D8015A
:102DA00040E050E0AE17BF0750F412962D913C91D1
:102DB0001397AD012115310509F1D901F3CF9D011B
:102DC000DA013383228360817181860F971F821716
:102DD000930769F4EC0128813981260F371F2E5F94
:102DE0003F4F318320838A819B8193838283452B4C
:102DF00029F4F0931206E093110642C01396FC9357
:102E0000EE931297ED01499159919E01240F351FC0
:102E1000E217F30771F480819181840F951F029668
:102E200011969C938E938281938113969C938E939B
:102E30001297E0E0F0E0D80112968D919C911397E3
:102E4000009719F0F8018C01F6CF8D919C919801B3
:102E50002E5F3F4F820F931F20910F063091100677
:102E60002817390769F4309729F410921206109246
:102E7000110602C0138212821093100600930F06EF
:102E8000DF91CF911F910F91089581E090E0F89428
:102E90000C94E71DFB01DC0101900D920020E1F78D
:102EA0000895AEE0B0E0E7E5F7E10C94BE1D0D89B2
:102EB0001E8986E08C831A8309838FEF9FE79E83A8
:102EC0008D83AE01475E5F4F6F89788DCE0101968D
:102ED0000E948D172F813885F801E20FF31F1082B1
:102EE0002E96E4E00C94DA1DAEE0B0E0EAE7F7E1FC
:102EF0000C94C01D85E08C838B899C899A8389837F
:102F0000AE01495E5F4F6D897E89CE0101960E94B8
:102F1000DF1A2E96E2E00C94DC1DACE0B0E0E3E9B1
:102F2000F7E10C94B01D7C016B018A01FC01178252
:102F30001682838181FFBDC1CE0101964C01F7014C
:102F40009381F60193FD859193FF81916F01882311
:102F500009F4ABC1853239F493FD859193FF8191DA
:102F60006F01853229F4B70190E00E94751CE7CF0C
:102F7000512C312C20E02032A0F48B3269F030F457
:102F8000803259F0833269F420612CC08D3239F0DF
:102F9000803339F4216026C02260246023C0286079
:102FA00021C027FD27C030ED380F3A3078F426FFD6
:102FB00006C0FAE05F9E300D1124532E13C08AE044
:102FC000389E300D1124332E20620CC08E3221F435
:102FD00026FD6BC1206406C08C3611F4206802C047
:102FE000883641F4F60193FD859193FF81916F013D
:102FF0008111C1CF982F9F7D9554933028F40C5F99
:103000001F4FFFE3F9830DC0833631F0833771F032
:10301000833509F05BC022C0F801808189830E5F8F
:103020001F4F44244394512C540115C03801F2E041
:103030006F0E711CF801A080B18026FF03C0652DC2
:1030400070E002C06FEF7FEFC5012C870E942C1C3F
:103050002C0183012C852F77222E17C03801F2E036
:103060006F0E711CF801A080B18026FF03C0652D92
:1030700070E002C06FEF7FEFC5012C870E94211C1A
:103080002C012C852068222E830123FC1BC0832D5C
:1030900090E048165906B0F4B70180E290E00E9433
:1030A000751C3A94F4CFF50127FC859127FE819198
:1030B0005F01B70190E00E94751C31103A94F1E075
:1030C0004F1A51084114510471F7E5C0843611F0CC
:1030D000893639F5F80127FF07C060817181828147
:1030E00093810C5F1F4F08C060817181072E000C17
:1030F000880B990B0E5F1F4F2F76722E97FF09C01A
:1031000090958095709561957F4F8F4F9F4F206868
:10311000722E2AE030E0A4010E94C61CA82EA81836
:1031200044C0853729F42F7EB22E2AE030E025C036
:10313000F22FF97FBF2E8F36C1F018F4883579F061
:10314000B4C0803719F0883721F0AFC02F2F20612D
:10315000B22EB4FE0DC08B2D8460B82E09C024FFA2
:103160000AC09F2F9660B92E06C028E030E005C047
:1031700020E130E002C020E132E0F801B7FE07C0F4
:1031800060817181828193810C5F1F4F06C06081D5
:10319000718180E090E00E5F1F4FA4010E94C61C69
:1031A000A82EA818FB2DFF777F2E76FE0BC0372D9B
:1031B0003E7FA51450F474FE0AC072FC08C0372D7F
:1031C0003E7E05C0BA2C372D03C0BA2C01C0B52CE9
:1031D00034FF0DC0FE01EA0DF11D8081803311F432
:1031E000397E09C032FF06C0B394B39404C0832F64
:1031F000867809F0B39433FD13C030FF06C05A2C13
:10320000B31418F4530C5B18B32CB31468F4B7015F
:1032100080E290E03C870E94751CB3943C85F5CF1A
:10322000B31410F43B1801C0312C34FF12C0B701A5
:1032300080E390E03C870E94751C3C8532FF17C0FC
:1032400031FD03C088E790E002C088E590E0B70157
:103250000CC0832F867859F031FF02C08BE201C089
:1032600080E237FD8DE2B70190E00E94751CA51445
:1032700038F4B70180E390E00E94751C5A94F7CFB0
:10328000AA94F401EA0DF11D8081B70190E00E943B
:10329000751CA110F5CF332009F451CEB70180E29F
:1032A00090E00E94751C3A94F6CFF70186819781D1
:1032B00002C08FEF9FEF2C96E2E10C94CC1D20FD15
:1032C00009C0FC0123FD05C022FF02C07383628395
:1032D00051834083089544FD10C046FD10C0DB01BA
:1032E000FC01AA0FBB1FEE1FFF1F1094D1F76A0F3E
:1032F0007B1F8E1F9F1F31E003C033E001C034E00D
:10330000660F771F881F991F3150D1F7620F711D0B
:10331000811D911D08950F931F93CF93DF938C010F
:10332000C8010E94371CEC0197FD08C00E940D1CCB
:10333000892BB1F7B801CE010E94AD1CCE01DF91FF
:10334000CF911F910F910895A1E0B0E0EAEAF9E171
:103350000C94B61D8C01C62E7A0129830E94371C5D
:10336000AC01552729814B32510521F04D325105D1
:1033700069F42068CA94C11002C080E076C0C80118
:1033800029830E94371C298197FDF7CF322F3D7F7B
:10339000D32E322F307349F5803339F5BB24BA94DC
:1033A000BC0C09F44EC0C80129830E94371C298136
:1033B00097FD47C0382F3F7D383569F48D2D8264E5
:1033C000D82ECA94CA94CC20E1F1C8010E94371CBF
:1033D00097FF0BC036C026FF04C02D2D2260D22ED1
:1033E00003C03D2D3261D32ECB2C812C912C540166
:1033F00020ED280F283080F0D4FE04C0B8010E94D0
:10340000AD1C1CC02A3040F0D6FEF8CF2F7D3FEE19
:10341000320F363098F727504D2DC501B4010E9468
:103420006B194B015C018D2D8260D82ECA94CC2083
:1034300059F0C8010E94371C97FFDACFD1FC04C0B5
:103440009CCF812C912C5401D7FE08C0B094A0943D
:1034500090948094811C911CA11CB11C2D2DB50150
:10346000A401C7010E945F1981E02196ECE00C9451
:10347000D21DA1E2B0E0EFE3FAE10C94B41D5C01CF
:103480007A01CE0101966C0180E2F60111928A95D3
:10349000E9F7F501838040E050E0912C712C70E059
:1034A000A1E0B0E0F90183FC859183FE81918F0159
:1034B000982F9F01811103C080E090E07CC08E3581
:1034C00019F44115510549F1E72FF0E0E417F5072C
:1034D0003CF48D3559F18D3219F4772001F103C098
:1034E000711001C0982E892F869586958695860144
:1034F000080F111D892F87703D0101C0660C8A9548
:10350000EAF7F801808186298083991559F0991589
:1035100010F49F5FE8CF9150E6CF71E004C07724AC
:10352000739401C0712C4F5F5F4FBCCF772019F0AF
:103530008E8180628E83711103C09924939416C08A
:10354000F6019E012F5D3F4F808180958193E217A8
:10355000F307D1F7F2CFE114F10429F0F7018083EA
:10356000C70101967C016150912CF9F0C50169A356
:103570000E94371C69A197FD16C0282F2695269515
:103580002695F601E20FF11D208130E0AC01477075
:10359000552702C0359527954A95E2F720FDDBCFE8
:1035A000B5010E94AD1C911087CFE114F10411F018
:1035B000F7011082C801A196EEE00C94D01D4F9245
:1035C0005F927F928F929F92AF92BF92CF92DF9243
:1035D000EF92FF920F931F93CF93DF931F92CDB77C
:1035E000DEB76C012B015A01FC0117821682712C87
:1035F000F601F380F201F3FC8591F3FE8191382FFF
:103600002F01882309F4F3C090E039830E940D1C38
:103610003981892B21F0C6010E948B19E9CF3532FF
:1036200041F4F201F3FC3591F3FE31912F01353273
:1036300069F4C60139830E94371C398197FDD5C0D2
:103640003817B1F2B6010E94AD1CD1C03A3239F43C
:10365000F3FC3591F3FE31912F0151E001C050E0B0
:10366000420110E020ED230F2A3090F45260612FC8
:1036700070E080E090E040E259830E946B19162FC1
:10368000F401F3FC3591F3FE31914F015981EACFFA
:10369000052F232F240151FF03C0111102C0A7C021
:1036A0001FEF383619F03C3659F011C0F401F3FC25
:1036B0002591F3FE21912F01283649F4052F08604A
:1036C0000460F201F3FC2591F3FE21912F012223E6
:1036D00009F48DC0622F70E083EC90E029830E9492
:1036E000161C2981892B09F482C000FD07C0F50151
:1036F000E080F180C50102965C0102C0E12CF12C52
:103700002E3651F4F6014681578160E070E0202F9B
:10371000C7010E945F196CCF233691F401FF11E0BD
:10372000C6010E94371C97FD60C0E114F10429F026
:10373000F7018083C70101967C01115089F751C0C0
:103740002B3559F49201A701612FC6010E94391A45
:103750002C01892B09F045C03FC0C60129830E9476
:103760008B19298197FD41C02F3659F128F4243651
:1037700031F1293649F127C0233769F02537F9F0AF
:1037800022C0E114F10429F0F7018082C7010196FB
:103790007C01115071F0C6010E94371C4C0197FD4D
:1037A00008C00E940D1C892B61F3B601C4010E9460
:1037B000AD1CE114F104A9F0F701108212C00062FF
:1037C00003C0006101C00064202FA701612FC60162
:1037D0000E94A419811105C0F6018381807329F428
:1037E00006C000FD05CF739403CF772019F0872D15
:1037F00090E002C08FEF9FEF0F90DF91CF911F916C
:103800000F91FF90EF90DF90CF90BF90AF909F907F
:103810008F907F905F904F90089591110C94241D8C
:10382000803219F089508550C8F70895FC01059041
:10383000061621F00020D9F7C00108953197CF0175
:103840000895FC010590615070400110D8F78095F3
:1038500090958E0F9F1F0895FC016150704001905C
:103860000110D8F7809590958E0F9F1F0895CF93E4
:10387000DF93EC012B8120FF33C026FF0AC02F7B92
:103880002B838E819F8101969F838E838A8190E016
:1038900029C022FF0FC0E881F9818081082E000C29
:1038A000990B009719F420622B831AC03196F98383
:1038B000E8830EC0EA85FB85099597FF09C02B8137
:1038C000019611F080E201C080E1822B8B8308C059
:1038D0002E813F812F5F3F4F3F832E83992702C068
:1038E0008FEF9FEFDF91CF9108950F931F93CF93A9
:1038F000DF93FB01238121FD03C08FEF9FEF28C0E1
:1039000022FF16C046815781248135814217530713
:1039100044F4A081B1819D012F5F3F4F318320830B
:103920008C93268137812F5F3F4F3783268310C0CA
:10393000EB01092F182F0084F185E02D0995892BC3
:10394000E1F68E819F8101969F838E83812F902F38
:10395000DF91CF911F910F910895FB01238120FFEB
:1039600012C026FD10C08F3F3FEF930761F08283A6
:103970002F7D2064238326813781215031093783AD
:103980002683992708958FEF9FEF0895FA01AA27BC
:10399000283051F1203181F1E8946F936E7F6E5F92
:1039A0007F4F8F4F9F4FAF4FB1E03ED0B4E03CD040
:1039B000670F781F891F9A1FA11D680F791F8A1F23
:1039C000911DA11D6A0F711D811D911DA11D20D08A
:1039D00009F468943F912AE0269F11243019305D44
:1039E0003193DEF6CF010895462F4770405D419335
:1039F000B3E00FD0C9F7F6CF462F4F70405D4A3382
:103A000018F0495D31FD4052419302D0A9F7EACF49
:103A1000B4E0A6959795879577956795BA95C9F778
:103A200000976105710508959B01AC010A2E06946B
:103A30005795479537952795BA95C9F7620F731F24
:103A4000841F951FA01D0895992788270895FC01BC
:103A500088279927E89421912032E9F3293010F042
:103A60002E30C8F32B3241F02D3239F4689404C063
:103A70000E94451D820F911D219120532A30C0F3D1
:103A80001EF4909581959F4F08957AE0979F902D11
:103A9000879F802D910D11240895052E97FB1EF40C
:103AA00000940E94641D57FD07D00E947F1D07FCF3
:103AB00003D04EF40C94641D50954095309521959B
:103AC0003F4F4F4F5F4F089590958095709561954A
:103AD0007F4F8F4F9F4F08950E94A11DA59F900D6E
:103AE000B49F900DA49F800D911D11240895B7FFE0
:103AF0000C946C1D0E946C1D821B930B0895A1E217
:103B00001A2EAA1BBB1BFD010DC0AA1FBB1FEE1F57
:103B1000FF1FA217B307E407F50720F0A21BB30BA2
:103B2000E40BF50B661F771F881F991F1A9469F71E
:103B300060957095809590959B01AC01BD01CF017A
:103B40000895A29FB001B39FC001A39F700D811D76
:103B50001124911DB29F700D811D1124911D089596
:103B60002F923F924F925F926F927F928F929F928D
:103B7000AF92BF92CF92DF92EF92FF920F931F937B
:103B8000CF93DF93CDB7DEB7CA1BDB0B0FB6F8942C
:103B9000DEBF0FBECDBF09942A88398848885F846C
:103BA0006E847D848C849B84AA84B984C884DF80DD
:103BB000EE80FD800C811B81AA81B981CE0FD11DC1
:103BC0000FB6F894DEBF0FBECDBFED01089510E033
:103BD000C9E6D0E004C0FE010E9402142196CA3654
:083BE000D107C9F7F894FFCFEB
:103BE800485454502F312E312034303020426164F3
:103BF80020526571756573740A436F6E6E656374E0
:103C0800696F6E3A20636C6F73650A436F6E7465F3
:103C18006E742D547970653A206170706C696361B7
:103C280074696F6E2F6A736F6E0A436F6E74656E78
:103C3800742D4C656E6774683A20300A4163636579
:103C480073732D436F6E74726F6C2D416C6C6F774C
:103C58002D4F726967696E3A202A0A0A002D204C96
:103C680065640A09474554202F382F3C73746174E2
:103C7800655B307C315D3E2F0A2D20494D550A0980
:103C8800474554202F392F0A2D20436865636B2040
:103C98004F4B0A09474554202F31302F0A2D204118
:103CA80050490A09474554202F31312F0A002D2049
:103CB80044697374616E63650A09474554202F355A
:103CC8002F0A2D20506978656C0A09474554202F22
:103CD800362F3C7265643E2F3C677265656E3E2FD9
:103CE8003C626C75653E2F0A2D204C696768740A22
:103CF80009474554202F372F0A004150492076653F
:103D08007273696F6E20312E320A2D20426C696EF3
:103D18006B0A09474554202F312F3C726174653E68
:103D28002F0A2D204C696E650A09474554202F3209
:103D38002F0A2D204D6F76650A09474554202F33E9
:103D48002F3C6C6566743E2F3C72696768743E2F21
:103D58000A2D2053696E670A09474554202F342FCE
:103D68003C6E6F74653E2F3C6475726174696F6E4A
:103D78003E2F0A00485454502F312E312032303013
:103D8800204F4B0A436F6E6E656374696F6E3A20FD
:103D9800636C6F73650A436F6E74656E742D547926
:103DA80070653A206170706C69636174696F6E2F19
:103DB8006A736F6E0A436F6E74656E742D4C656E10
:103DC8006774683A2025640A4163636573732D43F9
:103DD8006F6E74726F6C2D416C6C6F772D4F7269BA
:103DE80067696E3A202A0A0A257300FF0000130645
:103DF800800001000000E803B801B801B8015D01C6
:103E08000B02B8015D010B02B80193029302930201
:103E1800BA020B02B8015D010B02B80104000400EC
:103E28000400050010000400050010000200040052
:103E38000400040005001000040005001000020042
:103E480000000000F60094003502130227023D012D
:103E580000000000D902A902A1028D027E027D02A3
:103E6800252A5B5E2F5D252A63255B5E2F5D252A4B
:103E780063255B5E2F5D252A63255B5E2F5D252A02
:103E880063255B5E2F5D005B25642C2025645D0047
:103E9800256C64002564005B25642C2025642C2097
:103EA80025642C2025642C2025642C2025642C20B6
:0E3EB80025645D004F4B0025732573257300B4
:00000001FF
